{
  "contractName": "ERC721",
  "abi": [
    {
      "inputs": [],
      "stateMutability": "nonpayable",
      "type": "constructor"
    },
    {
      "anonymous": false,
      "inputs": [
        {
          "indexed": true,
          "internalType": "address",
          "name": "owner",
          "type": "address"
        },
        {
          "indexed": true,
          "internalType": "address",
          "name": "approved",
          "type": "address"
        },
        {
          "indexed": true,
          "internalType": "uint256",
          "name": "tokenId",
          "type": "uint256"
        }
      ],
      "name": "Approval",
      "type": "event"
    },
    {
      "anonymous": false,
      "inputs": [
        {
          "indexed": true,
          "internalType": "address",
          "name": "owner",
          "type": "address"
        },
        {
          "indexed": true,
          "internalType": "address",
          "name": "operator",
          "type": "address"
        },
        {
          "indexed": false,
          "internalType": "bool",
          "name": "approved",
          "type": "bool"
        }
      ],
      "name": "ApprovalForAll",
      "type": "event"
    },
    {
      "anonymous": false,
      "inputs": [
        {
          "indexed": false,
          "internalType": "address",
          "name": "",
          "type": "address"
        }
      ],
      "name": "OwnershipTransferred",
      "type": "event"
    },
    {
      "anonymous": false,
      "inputs": [
        {
          "indexed": false,
          "internalType": "address",
          "name": "",
          "type": "address"
        }
      ],
      "name": "Paused",
      "type": "event"
    },
    {
      "anonymous": false,
      "inputs": [
        {
          "indexed": true,
          "internalType": "address",
          "name": "from",
          "type": "address"
        },
        {
          "indexed": true,
          "internalType": "address",
          "name": "to",
          "type": "address"
        },
        {
          "indexed": true,
          "internalType": "uint256",
          "name": "tokenId",
          "type": "uint256"
        }
      ],
      "name": "Transfer",
      "type": "event"
    },
    {
      "anonymous": false,
      "inputs": [
        {
          "indexed": false,
          "internalType": "address",
          "name": "",
          "type": "address"
        }
      ],
      "name": "Unpaused",
      "type": "event"
    },
    {
      "inputs": [],
      "name": "checkOwner",
      "outputs": [
        {
          "internalType": "address",
          "name": "",
          "type": "address"
        }
      ],
      "stateMutability": "view",
      "type": "function"
    },
    {
      "inputs": [],
      "name": "checkStatus",
      "outputs": [
        {
          "internalType": "bool",
          "name": "",
          "type": "bool"
        }
      ],
      "stateMutability": "view",
      "type": "function"
    },
    {
      "inputs": [],
      "name": "pause",
      "outputs": [],
      "stateMutability": "nonpayable",
      "type": "function"
    },
    {
      "inputs": [
        {
          "internalType": "bytes4",
          "name": "interfaceId",
          "type": "bytes4"
        }
      ],
      "name": "supportsInterface",
      "outputs": [
        {
          "internalType": "bool",
          "name": "",
          "type": "bool"
        }
      ],
      "stateMutability": "view",
      "type": "function"
    },
    {
      "inputs": [
        {
          "internalType": "address",
          "name": "newOwner",
          "type": "address"
        }
      ],
      "name": "transferOwnership",
      "outputs": [],
      "stateMutability": "nonpayable",
      "type": "function"
    },
    {
      "inputs": [],
      "name": "unpause",
      "outputs": [],
      "stateMutability": "nonpayable",
      "type": "function"
    },
    {
      "inputs": [
        {
          "internalType": "address",
          "name": "owner",
          "type": "address"
        }
      ],
      "name": "balanceOf",
      "outputs": [
        {
          "internalType": "uint256",
          "name": "",
          "type": "uint256"
        }
      ],
      "stateMutability": "view",
      "type": "function"
    },
    {
      "inputs": [
        {
          "internalType": "uint256",
          "name": "tokenId",
          "type": "uint256"
        }
      ],
      "name": "ownerOf",
      "outputs": [
        {
          "internalType": "address",
          "name": "",
          "type": "address"
        }
      ],
      "stateMutability": "view",
      "type": "function"
    },
    {
      "inputs": [
        {
          "internalType": "address",
          "name": "to",
          "type": "address"
        },
        {
          "internalType": "uint256",
          "name": "tokenId",
          "type": "uint256"
        }
      ],
      "name": "approve",
      "outputs": [],
      "stateMutability": "nonpayable",
      "type": "function"
    },
    {
      "inputs": [
        {
          "internalType": "uint256",
          "name": "tokenId",
          "type": "uint256"
        }
      ],
      "name": "getApproved",
      "outputs": [
        {
          "internalType": "address",
          "name": "",
          "type": "address"
        }
      ],
      "stateMutability": "view",
      "type": "function"
    },
    {
      "inputs": [
        {
          "internalType": "address",
          "name": "to",
          "type": "address"
        },
        {
          "internalType": "bool",
          "name": "approved",
          "type": "bool"
        }
      ],
      "name": "setApprovalForAll",
      "outputs": [],
      "stateMutability": "nonpayable",
      "type": "function"
    },
    {
      "inputs": [
        {
          "internalType": "address",
          "name": "owner",
          "type": "address"
        },
        {
          "internalType": "address",
          "name": "operator",
          "type": "address"
        }
      ],
      "name": "isApprovedForAll",
      "outputs": [
        {
          "internalType": "bool",
          "name": "",
          "type": "bool"
        }
      ],
      "stateMutability": "view",
      "type": "function"
    },
    {
      "inputs": [
        {
          "internalType": "address",
          "name": "from",
          "type": "address"
        },
        {
          "internalType": "address",
          "name": "to",
          "type": "address"
        },
        {
          "internalType": "uint256",
          "name": "tokenId",
          "type": "uint256"
        }
      ],
      "name": "transferFrom",
      "outputs": [],
      "stateMutability": "nonpayable",
      "type": "function"
    },
    {
      "inputs": [
        {
          "internalType": "address",
          "name": "from",
          "type": "address"
        },
        {
          "internalType": "address",
          "name": "to",
          "type": "address"
        },
        {
          "internalType": "uint256",
          "name": "tokenId",
          "type": "uint256"
        }
      ],
      "name": "safeTransferFrom",
      "outputs": [],
      "stateMutability": "nonpayable",
      "type": "function"
    },
    {
      "inputs": [
        {
          "internalType": "address",
          "name": "from",
          "type": "address"
        },
        {
          "internalType": "address",
          "name": "to",
          "type": "address"
        },
        {
          "internalType": "uint256",
          "name": "tokenId",
          "type": "uint256"
        },
        {
          "internalType": "bytes",
          "name": "_data",
          "type": "bytes"
        }
      ],
      "name": "safeTransferFrom",
      "outputs": [],
      "stateMutability": "nonpayable",
      "type": "function"
    }
  ],
  "bytecode": "0x60806040523480156200001157600080fd5b50336000806101000a81548173ffffffffffffffffffffffffffffffffffffffff021916908373ffffffffffffffffffffffffffffffffffffffff1602179055507f04dba622d284ed0014ee4b9a6a68386be1a4c08a4913ae272de89199cc68616360008054906101000a900473ffffffffffffffffffffffffffffffffffffffff16604051620000a3919062000219565b60405180910390a160008060146101000a81548160ff0219169083151502179055507f62e78cea01bee320cd4e420270b5ea74000d11b0c9f74754ebdbfc544b05a25833604051620000f6919062000219565b60405180910390a1620001166301ffc9a760e01b6200013460201b60201c565b6200012e6380ac58cd60e01b6200013460201b60201c565b62000236565b63ffffffff60e01b817bffffffffffffffffffffffffffffffffffffffffffffffffffffffff191614156200016857600080fd5b6001806000837bffffffffffffffffffffffffffffffffffffffffffffffffffffffff19167bffffffffffffffffffffffffffffffffffffffffffffffffffffffff1916815260200190815260200160002060006101000a81548160ff02191690831515021790555050565b600073ffffffffffffffffffffffffffffffffffffffff82169050919050565b60006200020182620001d4565b9050919050565b6200021381620001f4565b82525050565b600060208201905062000230600083018462000208565b92915050565b611daa80620002466000396000f3fe608060405234801561001057600080fd5b50600436106100f55760003560e01c80636352211e11610097578063b88d4fde11610066578063b88d4fde1461025c578063cdbce03d14610278578063e985e9c514610296578063f2fde38b146102c6576100f5565b80636352211e146101d657806370a08231146102065780638456cb5914610236578063a22cb46514610240576100f5565b806323b872dd116100d357806323b872dd146101765780633b7104f2146101925780633f4ba83a146101b057806342842e0e146101ba576100f5565b806301ffc9a7146100fa578063081812fc1461012a578063095ea7b31461015a575b600080fd5b610114600480360381019061010f91906112d0565b6102e2565b6040516101219190611318565b60405180910390f35b610144600480360381019061013f9190611369565b61034a565b60405161015191906113d7565b60405180910390f35b610174600480360381019061016f919061141e565b6103cf565b005b610190600480360381019061018b919061145e565b61058e565b005b61019a6105b1565b6040516101a79190611318565b60405180910390f35b6101b86105c7565b005b6101d460048036038101906101cf919061145e565b6106ff565b005b6101f060048036038101906101eb9190611369565b61071f565b6040516101fd91906113d7565b60405180910390f35b610220600480360381019061021b91906114b1565b61075c565b60405161022d91906114ed565b60405180910390f35b61023e6107ac565b005b61025a60048036038101906102559190611534565b6108dc565b005b610276600480360381019061027191906116ba565b610a12565b005b610280610a38565b60405161028d91906113d7565b60405180910390f35b6102b060048036038101906102ab919061173d565b610a61565b6040516102bd9190611318565b60405180910390f35b6102e060048036038101906102db91906114b1565b610af5565b005b600060016000837bffffffffffffffffffffffffffffffffffffffffffffffffffffffff19167bffffffffffffffffffffffffffffffffffffffffffffffffffffffff1916815260200190815260200160002060009054906101000a900460ff169050919050565b600061035582610c8d565b610394576040517f08c379a000000000000000000000000000000000000000000000000000000000815260040161038b90611800565b60405180910390fd5b6003600083815260200190815260200160002060009054906101000a900473ffffffffffffffffffffffffffffffffffffffff169050919050565b6103d88161071f565b73ffffffffffffffffffffffffffffffffffffffff168273ffffffffffffffffffffffffffffffffffffffff161415610446576040517f08c379a000000000000000000000000000000000000000000000000000000000815260040161043d90611892565b60405180910390fd5b3373ffffffffffffffffffffffffffffffffffffffff166104668261071f565b73ffffffffffffffffffffffffffffffffffffffff161480610496575061049561048f8261071f565b33610a61565b5b6104d5576040517f08c379a00000000000000000000000000000000000000000000000000000000081526004016104cc906118fe565b60405180910390fd5b816003600083815260200190815260200160002060006101000a81548173ffffffffffffffffffffffffffffffffffffffff021916908373ffffffffffffffffffffffffffffffffffffffff160217905550808273ffffffffffffffffffffffffffffffffffffffff166105488361071f565b73ffffffffffffffffffffffffffffffffffffffff167f8c5be1e5ebec7d5bd14f71427d1e84f3dd0314c0f7b2291e5b200ac8c7c3b92560405160405180910390a45050565b6105983382610cff565b6105a157600080fd5b6105ac838383610d94565b505050565b60008060149054906101000a900460ff16905090565b60001515600060149054906101000a900460ff1615151461061d576040517f08c379a00000000000000000000000000000000000000000000000000000000081526004016106149061196a565b60405180910390fd5b3373ffffffffffffffffffffffffffffffffffffffff1660008054906101000a900473ffffffffffffffffffffffffffffffffffffffff1673ffffffffffffffffffffffffffffffffffffffff16146106ab576040517f08c379a00000000000000000000000000000000000000000000000000000000081526004016106a2906119d6565b60405180910390fd5b6001600060146101000a81548160ff0219169083151502179055507f5db9ee0a495bf2e6ff9c91a7834c1ba4fdd244a5e8aa4e537bd38aeae4b073aa336040516106f591906113d7565b60405180910390a1565b61071a83838360405180602001604052806000815250610a12565b505050565b60006002600083815260200190815260200160002060009054906101000a900473ffffffffffffffffffffffffffffffffffffffff169050919050565b60006107a5600460008473ffffffffffffffffffffffffffffffffffffffff1673ffffffffffffffffffffffffffffffffffffffff16815260200190815260200160002061100b565b9050919050565b600060149054906101000a900460ff166107fb576040517f08c379a00000000000000000000000000000000000000000000000000000000081526004016107f290611a42565b60405180910390fd5b3373ffffffffffffffffffffffffffffffffffffffff1660008054906101000a900473ffffffffffffffffffffffffffffffffffffffff1673ffffffffffffffffffffffffffffffffffffffff1614610889576040517f08c379a0000000000000000000000000000000000000000000000000000000008152600401610880906119d6565b60405180910390fd5b60008060146101000a81548160ff0219169083151502179055507f62e78cea01bee320cd4e420270b5ea74000d11b0c9f74754ebdbfc544b05a258336040516108d291906113d7565b60405180910390a1565b3373ffffffffffffffffffffffffffffffffffffffff168273ffffffffffffffffffffffffffffffffffffffff16141561091557600080fd5b80600560003373ffffffffffffffffffffffffffffffffffffffff1673ffffffffffffffffffffffffffffffffffffffff16815260200190815260200160002060008473ffffffffffffffffffffffffffffffffffffffff1673ffffffffffffffffffffffffffffffffffffffff16815260200190815260200160002060006101000a81548160ff0219169083151502179055508173ffffffffffffffffffffffffffffffffffffffff163373ffffffffffffffffffffffffffffffffffffffff167f17307eab39ab6107e8899845ad3d59bd9653f200f220920489ca2b5937696c3183604051610a069190611318565b60405180910390a35050565b610a1d84848461058e565b610a2984848484611019565b610a3257600080fd5b50505050565b60008060009054906101000a900473ffffffffffffffffffffffffffffffffffffffff16905090565b6000600560008473ffffffffffffffffffffffffffffffffffffffff1673ffffffffffffffffffffffffffffffffffffffff16815260200190815260200160002060008373ffffffffffffffffffffffffffffffffffffffff1673ffffffffffffffffffffffffffffffffffffffff16815260200190815260200160002060009054906101000a900460ff16905092915050565b3373ffffffffffffffffffffffffffffffffffffffff1660008054906101000a900473ffffffffffffffffffffffffffffffffffffffff1673ffffffffffffffffffffffffffffffffffffffff1614610b83576040517f08c379a0000000000000000000000000000000000000000000000000000000008152600401610b7a906119d6565b60405180910390fd5b600073ffffffffffffffffffffffffffffffffffffffff168173ffffffffffffffffffffffffffffffffffffffff161415610bf3576040517f08c379a0000000000000000000000000000000000000000000000000000000008152600401610bea90611ad4565b60405180910390fd5b806000806101000a81548173ffffffffffffffffffffffffffffffffffffffff021916908373ffffffffffffffffffffffffffffffffffffffff1602179055507f04dba622d284ed0014ee4b9a6a68386be1a4c08a4913ae272de89199cc68616360008054906101000a900473ffffffffffffffffffffffffffffffffffffffff16604051610c8291906113d7565b60405180910390a150565b6000806002600084815260200190815260200160002060009054906101000a900473ffffffffffffffffffffffffffffffffffffffff169050600073ffffffffffffffffffffffffffffffffffffffff168173ffffffffffffffffffffffffffffffffffffffff161415915050919050565b600080610d0b8361071f565b90508073ffffffffffffffffffffffffffffffffffffffff168473ffffffffffffffffffffffffffffffffffffffff161480610d7a57508373ffffffffffffffffffffffffffffffffffffffff16610d628461034a565b73ffffffffffffffffffffffffffffffffffffffff16145b80610d8b5750610d8a8185610a61565b5b91505092915050565b610d9d81610c8d565b610ddc576040517f08c379a0000000000000000000000000000000000000000000000000000000008152600401610dd390611800565b60405180910390fd5b8273ffffffffffffffffffffffffffffffffffffffff16610dfc8261071f565b73ffffffffffffffffffffffffffffffffffffffff1614610e52576040517f08c379a0000000000000000000000000000000000000000000000000000000008152600401610e4990611b66565b60405180910390fd5b600073ffffffffffffffffffffffffffffffffffffffff168273ffffffffffffffffffffffffffffffffffffffff161415610ec2576040517f08c379a0000000000000000000000000000000000000000000000000000000008152600401610eb990611bd2565b60405180910390fd5b610ecb81611121565b610f12600460008573ffffffffffffffffffffffffffffffffffffffff1673ffffffffffffffffffffffffffffffffffffffff1681526020019081526020016000206111df565b610f59600460008473ffffffffffffffffffffffffffffffffffffffff1673ffffffffffffffffffffffffffffffffffffffff16815260200190815260200160002061123b565b816002600083815260200190815260200160002060006101000a81548173ffffffffffffffffffffffffffffffffffffffff021916908373ffffffffffffffffffffffffffffffffffffffff160217905550808273ffffffffffffffffffffffffffffffffffffffff168473ffffffffffffffffffffffffffffffffffffffff167fddf252ad1be2c89b69c2b068fc378daa952ba7f163c4a11628f55a4df523b3ef60405160405180910390a4505050565b600081600001549050919050565b600061103a8473ffffffffffffffffffffffffffffffffffffffff16611251565b6110475760019050611119565b60008473ffffffffffffffffffffffffffffffffffffffff1663150b7a02338887876040518563ffffffff1660e01b81526004016110889493929190611c7a565b6020604051808303816000875af11580156110a7573d6000803e3d6000fd5b505050506040513d601f19601f820116820180604052508101906110cb9190611cdb565b905063150b7a0260e01b7bffffffffffffffffffffffffffffffffffffffffffffffffffffffff1916817bffffffffffffffffffffffffffffffffffffffffffffffffffffffff1916149150505b949350505050565b600073ffffffffffffffffffffffffffffffffffffffff166003600083815260200190815260200160002060009054906101000a900473ffffffffffffffffffffffffffffffffffffffff1673ffffffffffffffffffffffffffffffffffffffff16146111dc5760006003600083815260200190815260200160002060006101000a81548173ffffffffffffffffffffffffffffffffffffffff021916908373ffffffffffffffffffffffffffffffffffffffff1602179055505b50565b6000816000015490506000811161122b576040517f08c379a000000000000000000000000000000000000000000000000000000000815260040161122290611d54565b60405180910390fd5b6001810382600001819055505050565b6001816000016000828254019250508190555050565b600080823b905060008111915050919050565b6000604051905090565b600080fd5b600080fd5b60007fffffffff0000000000000000000000000000000000000000000000000000000082169050919050565b6112ad81611278565b81146112b857600080fd5b50565b6000813590506112ca816112a4565b92915050565b6000602082840312156112e6576112e561126e565b5b60006112f4848285016112bb565b91505092915050565b60008115159050919050565b611312816112fd565b82525050565b600060208201905061132d6000830184611309565b92915050565b6000819050919050565b61134681611333565b811461135157600080fd5b50565b6000813590506113638161133d565b92915050565b60006020828403121561137f5761137e61126e565b5b600061138d84828501611354565b91505092915050565b600073ffffffffffffffffffffffffffffffffffffffff82169050919050565b60006113c182611396565b9050919050565b6113d1816113b6565b82525050565b60006020820190506113ec60008301846113c8565b92915050565b6113fb816113b6565b811461140657600080fd5b50565b600081359050611418816113f2565b92915050565b600080604083850312156114355761143461126e565b5b600061144385828601611409565b925050602061145485828601611354565b9150509250929050565b6000806000606084860312156114775761147661126e565b5b600061148586828701611409565b935050602061149686828701611409565b92505060406114a786828701611354565b9150509250925092565b6000602082840312156114c7576114c661126e565b5b60006114d584828501611409565b91505092915050565b6114e781611333565b82525050565b600060208201905061150260008301846114de565b92915050565b611511816112fd565b811461151c57600080fd5b50565b60008135905061152e81611508565b92915050565b6000806040838503121561154b5761154a61126e565b5b600061155985828601611409565b925050602061156a8582860161151f565b9150509250929050565b600080fd5b600080fd5b6000601f19601f8301169050919050565b7f4e487b7100000000000000000000000000000000000000000000000000000000600052604160045260246000fd5b6115c78261157e565b810181811067ffffffffffffffff821117156115e6576115e561158f565b5b80604052505050565b60006115f9611264565b905061160582826115be565b919050565b600067ffffffffffffffff8211156116255761162461158f565b5b61162e8261157e565b9050602081019050919050565b82818337600083830152505050565b600061165d6116588461160a565b6115ef565b90508281526020810184848401111561167957611678611579565b5b61168484828561163b565b509392505050565b600082601f8301126116a1576116a0611574565b5b81356116b184826020860161164a565b91505092915050565b600080600080608085870312156116d4576116d361126e565b5b60006116e287828801611409565b94505060206116f387828801611409565b935050604061170487828801611354565b925050606085013567ffffffffffffffff81111561172557611724611273565b5b6117318782880161168c565b91505092959194509250565b600080604083850312156117545761175361126e565b5b600061176285828601611409565b925050602061177385828601611409565b9150509250929050565b600082825260208201905092915050565b7f4552524f523a20544f4b454e20454e544552454420444f45534e27542045584960008201527f5354000000000000000000000000000000000000000000000000000000000000602082015250565b60006117ea60228361177d565b91506117f58261178e565b604082019050919050565b60006020820190508181036000830152611819816117dd565b9050919050565b7f4552524f523a204144445245535320414c524541445920544845204f574e455260008201527f204f462054484520544f4b454e00000000000000000000000000000000000000602082015250565b600061187c602d8361177d565b915061188782611820565b604082019050919050565b600060208201905081810360008301526118ab8161186f565b9050919050565b7f4552524f523a2043414c4c4552204953204e4f5420544f4b454e204f574e4552600082015250565b60006118e860208361177d565b91506118f3826118b2565b602082019050919050565b60006020820190508181036000830152611917816118db565b9050919050565b7f434f4e5452414354204953204e4f542050415553454400000000000000000000600082015250565b600061195460168361177d565b915061195f8261191e565b602082019050919050565b6000602082019050818103600083015261198381611947565b9050919050565b7f4e4f54204f574e45520000000000000000000000000000000000000000000000600082015250565b60006119c060098361177d565b91506119cb8261198a565b602082019050919050565b600060208201905081810360008301526119ef816119b3565b9050919050565b7f434f4e5452414354204953205041555345440000000000000000000000000000600082015250565b6000611a2c60128361177d565b9150611a37826119f6565b602082019050919050565b60006020820190508181036000830152611a5b81611a1f565b9050919050565b7f4552524f523a204144445245535320454e5445524544204953204e4f5420564160008201527f4c49440000000000000000000000000000000000000000000000000000000000602082015250565b6000611abe60238361177d565b9150611ac982611a62565b604082019050919050565b60006020820190508181036000830152611aed81611ab1565b9050919050565b7f4552524f523a202746524f4d272041444452455353204953204e4f54204f574e60008201527f4552204f462054484520544f4b454e0000000000000000000000000000000000602082015250565b6000611b50602f8361177d565b9150611b5b82611af4565b604082019050919050565b60006020820190508181036000830152611b7f81611b43565b9050919050565b7f4552524f523a2027544f272041444452455353204953204e4f542056414c4944600082015250565b6000611bbc60208361177d565b9150611bc782611b86565b602082019050919050565b60006020820190508181036000830152611beb81611baf565b9050919050565b600081519050919050565b600082825260208201905092915050565b60005b83811015611c2c578082015181840152602081019050611c11565b83811115611c3b576000848401525b50505050565b6000611c4c82611bf2565b611c568185611bfd565b9350611c66818560208601611c0e565b611c6f8161157e565b840191505092915050565b6000608082019050611c8f60008301876113c8565b611c9c60208301866113c8565b611ca960408301856114de565b8181036060830152611cbb8184611c41565b905095945050505050565b600081519050611cd5816112a4565b92915050565b600060208284031215611cf157611cf061126e565b5b6000611cff84828501611cc6565b91505092915050565b7f436f756e7465723a2064656372656d656e74206f766572666c6f770000000000600082015250565b6000611d3e601b8361177d565b9150611d4982611d08565b602082019050919050565b60006020820190508181036000830152611d6d81611d31565b905091905056fea2646970667358221220072ebedbd2a7b5fba1ab78ef92950a617505fce4d5b1af71f54ec33184b121e464736f6c634300080b0033",
  "immutableReferences": {},
  "source": "// SPDX-License-Identifier: MIT\npragma solidity ^0.8.0;\n\n\nimport \"@openzeppelin/contracts/utils/Address.sol\";\nimport \"@openzeppelin/contracts/utils/Counters.sol\";\nimport \"@openzeppelin/contracts/utils/math/SafeMath.sol\";\nimport \"@openzeppelin/contracts/token/ERC721/IERC721Receiver.sol\";\nimport \"@openzeppelin/contracts/utils/Strings.sol\";\nimport \"./Concat.sol\";\n\n\n/********************************************************************************************/\n/*                                          Ownable                                         */\n/********************************************************************************************/\ncontract Ownable {\n    address private _owner;\n\n\n    event OwnershipTransferred(address);\n\n\n    constructor() {\n        _owner = msg.sender;\n        emit OwnershipTransferred(_owner);\n    }\n\n\n    modifier onlyOwner() {\n        require(_owner == msg.sender, \"NOT OWNER\");\n        _;\n    }\n\n\n    function checkOwner() public view returns(address){\n        return _owner;\n    }\n\n    function transferOwnership(address newOwner) public onlyOwner {\n        require(address(newOwner) != address(0), \"ERROR: ADDRESS ENTERED IS NOT VALID\");\n        _owner = newOwner;\n\n        emit OwnershipTransferred(_owner);\n    }\n}\n\n\n/********************************************************************************************/\n/*                                         Pausable                                         */\n/********************************************************************************************/\ncontract Pausable is Ownable {\n    bool private _paused;\n    \n\n    event Paused(address);\n    event Unpaused(address);\n\n\n    constructor () {\n        _paused = false;\n\n        emit Paused(msg.sender);\n    }\n\n    modifier whenNotPaused() {\n        require(_paused, \"CONTRACT IS PAUSED\");\n        _;\n    }\n\n    modifier paused() {\n        require(_paused == false, \"CONTRACT IS NOT PAUSED\");\n        _;\n    }\n\n\n    function checkStatus() public view returns(bool){\n        return _paused;\n    }\n\n    function unpause() public paused() onlyOwner() {\n        _paused = true;\n\n        emit Unpaused(msg.sender);\n    }\n\n    function pause() public whenNotPaused() onlyOwner() {\n        _paused = false;\n\n        emit Paused(msg.sender);\n    }\n}\n\n\n/********************************************************************************************/\n/*                                          ERC165                                          */\n/*                            https://eips.ethereum.org/EIPS/eip-165                        */\n/********************************************************************************************/\ncontract ERC165 {\n    bytes4 private constant _INTERFACE_ID_ERC165 = 0x01ffc9a7;\n    /*\n     * 0x01ffc9a7 ===\n     *     bytes4(keccak256('supportsInterface(bytes4)'))\n     */\n\n    mapping(bytes4 => bool) private _supportedInterfaces;\n\n\n    constructor () {\n        _registerInterface(_INTERFACE_ID_ERC165);\n    }\n\n\n    function supportsInterface(bytes4 interfaceId) external view returns (bool) {\n        return _supportedInterfaces[interfaceId];\n    }\n\n    function _registerInterface(bytes4 interfaceId) internal {\n        require(interfaceId != 0xffffffff);\n        _supportedInterfaces[interfaceId] = true;\n    }\n}\n\n\n/********************************************************************************************/\n/*                               ERC721 (NON FUNGIBLE TOKEN)                                */\n/********************************************************************************************/\ncontract ERC721 is Pausable, ERC165 {\n\n    event Transfer(address indexed from, address indexed to, uint256 indexed tokenId);\n    event Approval(address indexed owner, address indexed approved, uint256 indexed tokenId);\n    event ApprovalForAll(address indexed owner, address indexed operator, bool approved);\n    \n    using SafeMath for uint256;\n    using Address for address;\n    using Counters for Counters.Counter;\n\n    bytes4 private constant _ERC721_RECEIVED = 0x150b7a02;\n    \n    mapping (uint256 => address) private _tokenOwner;\n    \n    mapping (uint256 => address) private _tokenApprovals;\n    \n    mapping (address => Counters.Counter) private _ownedTokensCount;\n    \n    mapping (address => mapping (address => bool)) private _operatorApprovals;\n    \n    bytes4 private constant _INTERFACE_ID_ERC721 = 0x80ac58cd;\n\n\n    constructor () {\n        _registerInterface(_INTERFACE_ID_ERC721);\n    }\n\n\n    function balanceOf(address owner) public view returns (uint256) {\n        return Counters.current(_ownedTokensCount[owner]);\n    }\n\n    function ownerOf(uint256 tokenId) public view returns (address) {\n        return _tokenOwner[tokenId];\n    }\n\n    function approve(address to, uint256 tokenId) public {\n        require(to != ownerOf(tokenId), \"ERROR: ADDRESS ALREADY THE OWNER OF THE TOKEN\");\n        require(ownerOf(tokenId) == msg.sender || isApprovedForAll(ownerOf(tokenId), msg.sender), \"ERROR: CALLER IS NOT TOKEN OWNER\");\n\n        _tokenApprovals[tokenId] = to;\n\n        emit Approval(ownerOf(tokenId), to, tokenId);\n    }\n\n    function getApproved(uint256 tokenId) public view returns (address) {\n        require(_exists(tokenId), \"ERROR: TOKEN ENTERED DOESN'T EXIST\" );\n\n        return _tokenApprovals[tokenId];\n    }\n\n    function setApprovalForAll(address to, bool approved) public {\n        require(to != msg.sender);\n        \n        _operatorApprovals[msg.sender][to] = approved;\n\n        emit ApprovalForAll(msg.sender, to, approved);\n    }\n\n    function isApprovedForAll(address owner, address operator) public view returns (bool) {\n        return _operatorApprovals[owner][operator];\n    }\n\n    function transferFrom(address from, address to, uint256 tokenId) public {\n        require(_isApprovedOrOwner(msg.sender, tokenId));\n\n        _transferFrom(from, to, tokenId);\n    }\n\n    function safeTransferFrom(address from, address to, uint256 tokenId) public {\n        safeTransferFrom(from, to, tokenId, \"\");\n    }\n\n    function safeTransferFrom(address from, address to, uint256 tokenId, bytes memory _data) public {\n        transferFrom(from, to, tokenId);\n        require(_checkOnERC721Received(from, to, tokenId, _data));\n    }\n\n    function _exists(uint256 tokenId) internal view returns (bool) {\n        address owner = _tokenOwner[tokenId];\n        return owner != address(0);\n    }\n\n    function _isApprovedOrOwner(address spender, uint256 tokenId) internal view returns (bool) {\n        address owner = ownerOf(tokenId);\n        return (spender == owner || getApproved(tokenId) == spender || isApprovedForAll(owner, spender));\n    }\n\n    function _mint(address to, uint256 tokenId) virtual internal {\n        require(!_exists(tokenId), \"ERROR: TOKEN ENTERED ALREADY EXISTS\");\n        require(to != address(0) && !to.isContract(), \"ERROR: ADDRESS ENTERED IS NOT VALID\");\n\n        _tokenOwner[tokenId] = to;\n        _ownedTokensCount[to].increment();\n\n        emit Transfer(msg.sender, to, tokenId);\n    }\n\n    function _transferFrom(address from, address to, uint256 tokenId) virtual internal {\n        require(_exists(tokenId), \"ERROR: TOKEN ENTERED DOESN'T EXIST\" );\n        \n        require(ownerOf(tokenId) == from, \"ERROR: 'FROM' ADDRESS IS NOT OWNER OF THE TOKEN\");\n        \n        require(address(to) != address(0), \"ERROR: 'TO' ADDRESS IS NOT VALID\");\n\n\n        _clearApproval(tokenId);\n\n        _ownedTokensCount[from].decrement();\n        _ownedTokensCount[to].increment();\n        _tokenOwner[tokenId] = to;\n\n        emit Transfer(from, to, tokenId);\n    }\n\n    function _checkOnERC721Received(address from, address to, uint256 tokenId, bytes memory _data) internal returns (bool) {\n        if (!to.isContract()) {\n            return true;\n        }\n\n        bytes4 retval = IERC721Receiver(to).onERC721Received(msg.sender, from, tokenId, _data);\n        return (retval == _ERC721_RECEIVED);\n    }\n\n    function _clearApproval(uint256 tokenId) private {\n        if (_tokenApprovals[tokenId] != address(0)) {\n            _tokenApprovals[tokenId] = address(0);\n        }\n    }\n}\n\n\n/********************************************************************************************/\n/*                               ERC721Enumerable\nFKDLAKL;SA\n/********************************************************************************************/\ncontract ERC721Enumerable is ERC165, ERC721 {\n    mapping(address => uint256[]) private _ownedTokens;\n\n    mapping(uint256 => uint256) private _ownedTokensIndex;\n\n    uint256[] private _allTokens;\n\n    mapping(uint256 => uint256) private _allTokensIndex;\n\n    bytes4 private constant _INTERFACE_ID_ERC721_ENUMERABLE = 0x780e9d63;\n    /*\n     * 0x780e9d63 ===\n     *     bytes4(keccak256('totalSupply()')) ^\n     *     bytes4(keccak256('tokenOfOwnerByIndex(address,uint256)')) ^\n     *     bytes4(keccak256('tokenByIndex(uint256)'))\n     */\n\n    constructor () {\n        // register the supported interface to conform to ERC721Enumerable via ERC165\n        _registerInterface(_INTERFACE_ID_ERC721_ENUMERABLE);\n    }\n\n    function tokenOfOwnerByIndex(address owner, uint256 index) public view returns (uint256) {\n        require(index < balanceOf(owner));\n        return _ownedTokens[owner][index];\n    }\n\n    function totalSupply() public view returns (uint256) {\n        return _allTokens.length;\n    }\n\n    function tokenByIndex(uint256 index) public view returns (uint256) {\n        require(index < totalSupply());\n        return _allTokens[index];\n    }\n\n    function _transferFrom(address from, address to, uint256 tokenId) override internal {\n        super._transferFrom(from, to, tokenId);\n\n        _removeTokenFromOwnerEnumeration(from, tokenId);\n\n        _addTokenToOwnerEnumeration(to, tokenId);\n    }\n\n    function _mint(address to, uint256 tokenId) override internal {\n        super._mint(to, tokenId);\n\n        _addTokenToOwnerEnumeration(to, tokenId);\n\n        _addTokenToAllTokensEnumeration(tokenId);\n    }\n\n    function _tokensOfOwner(address owner) internal view returns (uint256[] storage) {\n        return _ownedTokens[owner];\n    }\n\n    function _addTokenToOwnerEnumeration(address to, uint256 tokenId) private {\n        _ownedTokensIndex[tokenId] = _ownedTokens[to].length;\n        _ownedTokens[to].push(tokenId);\n    }\n\n    function _addTokenToAllTokensEnumeration(uint256 tokenId) private {\n        _allTokensIndex[tokenId] = _allTokens.length;\n        _allTokens.push(tokenId);\n    }\n\n    function _removeTokenFromOwnerEnumeration(address from, uint256 tokenId) private {\n        //**uint256 lastTokenIndex = _ownedTokens[from].length.sub(1);\n        uint256 lastTokenIndex = _ownedTokens[from].length - 1;\n        uint256 tokenIndex = _ownedTokensIndex[tokenId];\n\n        if (tokenIndex != lastTokenIndex) {\n            uint256 lastTokenId = _ownedTokens[from][lastTokenIndex];\n\n            _ownedTokens[from][tokenIndex] = lastTokenId; // Move the last token to the slot of the to-delete token\n            _ownedTokensIndex[lastTokenId] = tokenIndex; // Update the moved token's index\n        }\n\n        // This also deletes the contents at the last position of the array\n        //**_ownedTokens[from].length--;\n        _ownedTokens[from].pop();\n\n        // Note that _ownedTokensIndex[tokenId] hasn't been cleared: it still points to the old slot (now occupied by\n        // lastTokenId, or just over the end of the array if the token was the last one).\n    }\n\n    function _removeTokenFromAllTokensEnumeration(uint256 tokenId) private {\n        //**uint256 lastTokenIndex = _allTokens.length.sub(1);\n        uint256 lastTokenIndex = _allTokens.length - 1;\n        uint256 tokenIndex = _allTokensIndex[tokenId];\n\n        uint256 lastTokenId = _allTokens[lastTokenIndex];\n\n        _allTokens[tokenIndex] = lastTokenId; // Move the last token to the slot of the to-delete token\n        _allTokensIndex[lastTokenId] = tokenIndex; // Update the moved token's index\n\n        _allTokens.pop();\n        _allTokensIndex[tokenId] = 0;\n    }\n}\n\ncontract ERC721Metadata is ERC721Enumerable {//, usingOraclize {\n\n    string private _name;\n    string private _symbol;\n    string private _baseTokenURI; \n\n    mapping(uint256 => string) private _tokenURIs;\n\n    bytes4 private constant _INTERFACE_ID_ERC721_METADATA = 0x5b5e139f;\n    /*\n     * 0x5b5e139f ===\n     *     bytes4(keccak256('name()')) ^\n     *     bytes4(keccak256('symbol()')) ^\n     *     bytes4(keccak256('tokenURI(uint256)'))\n     */\n\n\n    constructor (string memory name, string memory symbol, string memory baseTokenURI) {\n        _name = name;\n        _symbol = symbol;\n        _baseTokenURI = baseTokenURI;\n\n        _registerInterface(_INTERFACE_ID_ERC721_METADATA);\n    }\n\n    function getName() external view returns(string memory) {\n        return _name;\n    }\n\n    function getSymbol() external view returns(string memory) {\n        return _symbol;\n    }\n\n    function getBaseTokenURI() external view returns(string memory) {\n        return _baseTokenURI;\n    }\n\n    function tokenURI(uint256 tokenId) external view returns (string memory) {\n        require(_exists(tokenId));\n        return _tokenURIs[tokenId];\n    }\n\n    function setTokenURI(uint256 tokenId) internal {\n        require(_exists(tokenId), \"ERROR: TOKEN ENTERED DOESN'T EXIST\");\n        _tokenURIs[tokenId] = Concat.strConcat(_baseTokenURI, Strings.toString(tokenId));\n    }\n\n}\n\n\ncontract REERC721Token is ERC721Metadata(\"REToken\", \"RST\", \"https://s3-us-west-2.amazonaws.com/udacity-blockchain/capstone/\") {\n\n    function mint(address to, uint256 tokenId) public onlyOwner returns (bool){\n        super._mint(to, tokenId);\n        setTokenURI(tokenId);\n        return true;\n    }\n}",
  "sourcePath": "/Users/fernandomaximof/Documents/udacity-projects/capstone/Blockchain-Capstone/eth-contracts/contracts/ERC721Mintable.sol",
  "compiler": {
    "name": "solc",
    "version": "0.8.11+commit.d7f03943.Emscripten.clang"
  },
  "schemaVersion": "3.4.3",
  "updatedAt": "2022-01-24T08:46:28.447Z",
  "devdoc": {
    "kind": "dev",
    "methods": {},
    "version": 1
  },
  "userdoc": {
    "kind": "user",
    "methods": {},
    "version": 1
  }
}