{
  "contractName": "ERC721Metadata",
  "abi": [
    {
      "inputs": [
        {
          "internalType": "string",
          "name": "name",
          "type": "string"
        },
        {
          "internalType": "string",
          "name": "symbol",
          "type": "string"
        },
        {
          "internalType": "string",
          "name": "baseTokenURI",
          "type": "string"
        }
      ],
      "stateMutability": "nonpayable",
      "type": "constructor"
    },
    {
      "anonymous": false,
      "inputs": [
        {
          "indexed": true,
          "internalType": "address",
          "name": "owner",
          "type": "address"
        },
        {
          "indexed": true,
          "internalType": "address",
          "name": "approved",
          "type": "address"
        },
        {
          "indexed": true,
          "internalType": "uint256",
          "name": "tokenId",
          "type": "uint256"
        }
      ],
      "name": "Approval",
      "type": "event"
    },
    {
      "anonymous": false,
      "inputs": [
        {
          "indexed": true,
          "internalType": "address",
          "name": "owner",
          "type": "address"
        },
        {
          "indexed": true,
          "internalType": "address",
          "name": "operator",
          "type": "address"
        },
        {
          "indexed": false,
          "internalType": "bool",
          "name": "approved",
          "type": "bool"
        }
      ],
      "name": "ApprovalForAll",
      "type": "event"
    },
    {
      "anonymous": false,
      "inputs": [
        {
          "indexed": false,
          "internalType": "address",
          "name": "",
          "type": "address"
        }
      ],
      "name": "OwnershipTransferred",
      "type": "event"
    },
    {
      "anonymous": false,
      "inputs": [
        {
          "indexed": false,
          "internalType": "address",
          "name": "",
          "type": "address"
        }
      ],
      "name": "Paused",
      "type": "event"
    },
    {
      "anonymous": false,
      "inputs": [
        {
          "indexed": true,
          "internalType": "address",
          "name": "from",
          "type": "address"
        },
        {
          "indexed": true,
          "internalType": "address",
          "name": "to",
          "type": "address"
        },
        {
          "indexed": true,
          "internalType": "uint256",
          "name": "tokenId",
          "type": "uint256"
        }
      ],
      "name": "Transfer",
      "type": "event"
    },
    {
      "anonymous": false,
      "inputs": [
        {
          "indexed": false,
          "internalType": "address",
          "name": "",
          "type": "address"
        }
      ],
      "name": "Unpaused",
      "type": "event"
    },
    {
      "inputs": [
        {
          "internalType": "address",
          "name": "to",
          "type": "address"
        },
        {
          "internalType": "uint256",
          "name": "tokenId",
          "type": "uint256"
        }
      ],
      "name": "approve",
      "outputs": [],
      "stateMutability": "nonpayable",
      "type": "function"
    },
    {
      "inputs": [
        {
          "internalType": "address",
          "name": "owner",
          "type": "address"
        }
      ],
      "name": "balanceOf",
      "outputs": [
        {
          "internalType": "uint256",
          "name": "",
          "type": "uint256"
        }
      ],
      "stateMutability": "view",
      "type": "function"
    },
    {
      "inputs": [],
      "name": "checkOwner",
      "outputs": [
        {
          "internalType": "address",
          "name": "",
          "type": "address"
        }
      ],
      "stateMutability": "view",
      "type": "function"
    },
    {
      "inputs": [],
      "name": "checkStatus",
      "outputs": [
        {
          "internalType": "bool",
          "name": "",
          "type": "bool"
        }
      ],
      "stateMutability": "view",
      "type": "function"
    },
    {
      "inputs": [
        {
          "internalType": "uint256",
          "name": "tokenId",
          "type": "uint256"
        }
      ],
      "name": "getApproved",
      "outputs": [
        {
          "internalType": "address",
          "name": "",
          "type": "address"
        }
      ],
      "stateMutability": "view",
      "type": "function"
    },
    {
      "inputs": [
        {
          "internalType": "address",
          "name": "owner",
          "type": "address"
        },
        {
          "internalType": "address",
          "name": "operator",
          "type": "address"
        }
      ],
      "name": "isApprovedForAll",
      "outputs": [
        {
          "internalType": "bool",
          "name": "",
          "type": "bool"
        }
      ],
      "stateMutability": "view",
      "type": "function"
    },
    {
      "inputs": [
        {
          "internalType": "uint256",
          "name": "tokenId",
          "type": "uint256"
        }
      ],
      "name": "ownerOf",
      "outputs": [
        {
          "internalType": "address",
          "name": "",
          "type": "address"
        }
      ],
      "stateMutability": "view",
      "type": "function"
    },
    {
      "inputs": [],
      "name": "pause",
      "outputs": [],
      "stateMutability": "nonpayable",
      "type": "function"
    },
    {
      "inputs": [
        {
          "internalType": "address",
          "name": "from",
          "type": "address"
        },
        {
          "internalType": "address",
          "name": "to",
          "type": "address"
        },
        {
          "internalType": "uint256",
          "name": "tokenId",
          "type": "uint256"
        }
      ],
      "name": "safeTransferFrom",
      "outputs": [],
      "stateMutability": "nonpayable",
      "type": "function"
    },
    {
      "inputs": [
        {
          "internalType": "address",
          "name": "from",
          "type": "address"
        },
        {
          "internalType": "address",
          "name": "to",
          "type": "address"
        },
        {
          "internalType": "uint256",
          "name": "tokenId",
          "type": "uint256"
        },
        {
          "internalType": "bytes",
          "name": "_data",
          "type": "bytes"
        }
      ],
      "name": "safeTransferFrom",
      "outputs": [],
      "stateMutability": "nonpayable",
      "type": "function"
    },
    {
      "inputs": [
        {
          "internalType": "address",
          "name": "to",
          "type": "address"
        },
        {
          "internalType": "bool",
          "name": "approved",
          "type": "bool"
        }
      ],
      "name": "setApprovalForAll",
      "outputs": [],
      "stateMutability": "nonpayable",
      "type": "function"
    },
    {
      "inputs": [
        {
          "internalType": "bytes4",
          "name": "interfaceId",
          "type": "bytes4"
        }
      ],
      "name": "supportsInterface",
      "outputs": [
        {
          "internalType": "bool",
          "name": "",
          "type": "bool"
        }
      ],
      "stateMutability": "view",
      "type": "function"
    },
    {
      "inputs": [
        {
          "internalType": "uint256",
          "name": "index",
          "type": "uint256"
        }
      ],
      "name": "tokenByIndex",
      "outputs": [
        {
          "internalType": "uint256",
          "name": "",
          "type": "uint256"
        }
      ],
      "stateMutability": "view",
      "type": "function"
    },
    {
      "inputs": [
        {
          "internalType": "address",
          "name": "owner",
          "type": "address"
        },
        {
          "internalType": "uint256",
          "name": "index",
          "type": "uint256"
        }
      ],
      "name": "tokenOfOwnerByIndex",
      "outputs": [
        {
          "internalType": "uint256",
          "name": "",
          "type": "uint256"
        }
      ],
      "stateMutability": "view",
      "type": "function"
    },
    {
      "inputs": [],
      "name": "totalSupply",
      "outputs": [
        {
          "internalType": "uint256",
          "name": "",
          "type": "uint256"
        }
      ],
      "stateMutability": "view",
      "type": "function"
    },
    {
      "inputs": [
        {
          "internalType": "address",
          "name": "from",
          "type": "address"
        },
        {
          "internalType": "address",
          "name": "to",
          "type": "address"
        },
        {
          "internalType": "uint256",
          "name": "tokenId",
          "type": "uint256"
        }
      ],
      "name": "transferFrom",
      "outputs": [],
      "stateMutability": "nonpayable",
      "type": "function"
    },
    {
      "inputs": [
        {
          "internalType": "address",
          "name": "newOwner",
          "type": "address"
        }
      ],
      "name": "transferOwnership",
      "outputs": [],
      "stateMutability": "nonpayable",
      "type": "function"
    },
    {
      "inputs": [],
      "name": "unpause",
      "outputs": [],
      "stateMutability": "nonpayable",
      "type": "function"
    },
    {
      "inputs": [],
      "name": "getName",
      "outputs": [
        {
          "internalType": "string",
          "name": "",
          "type": "string"
        }
      ],
      "stateMutability": "view",
      "type": "function"
    },
    {
      "inputs": [],
      "name": "getSymbol",
      "outputs": [
        {
          "internalType": "string",
          "name": "",
          "type": "string"
        }
      ],
      "stateMutability": "view",
      "type": "function"
    },
    {
      "inputs": [],
      "name": "getBaseTokenURI",
      "outputs": [
        {
          "internalType": "string",
          "name": "",
          "type": "string"
        }
      ],
      "stateMutability": "view",
      "type": "function"
    },
    {
      "inputs": [
        {
          "internalType": "uint256",
          "name": "tokenId",
          "type": "uint256"
        }
      ],
      "name": "tokenURI",
      "outputs": [
        {
          "internalType": "string",
          "name": "",
          "type": "string"
        }
      ],
      "stateMutability": "view",
      "type": "function"
    }
  ],
  "bytecode": "0x60806040523480156200001157600080fd5b5060405162002ca938038062002ca98339818101604052810190620000379190620004c4565b336000806101000a81548173ffffffffffffffffffffffffffffffffffffffff021916908373ffffffffffffffffffffffffffffffffffffffff1602179055507f04dba622d284ed0014ee4b9a6a68386be1a4c08a4913ae272de89199cc68616360008054906101000a900473ffffffffffffffffffffffffffffffffffffffff16604051620000c89190620005c2565b60405180910390a160008060146101000a81548160ff0219169083151502179055507f62e78cea01bee320cd4e420270b5ea74000d11b0c9f74754ebdbfc544b05a258336040516200011b9190620005c2565b60405180910390a16200013b6301ffc9a760e01b620001d760201b60201c565b620001536380ac58cd60e01b620001d760201b60201c565b6200016b63780e9d6360e01b620001d760201b60201c565b82600a90805190602001906200018392919062000277565b5081600b90805190602001906200019c92919062000277565b5080600c9080519060200190620001b592919062000277565b50620001ce635b5e139f60e01b620001d760201b60201c565b50505062000644565b63ffffffff60e01b817bffffffffffffffffffffffffffffffffffffffffffffffffffffffff191614156200020b57600080fd5b6001806000837bffffffffffffffffffffffffffffffffffffffffffffffffffffffff19167bffffffffffffffffffffffffffffffffffffffffffffffffffffffff1916815260200190815260200160002060006101000a81548160ff02191690831515021790555050565b82805462000285906200060e565b90600052602060002090601f016020900481019282620002a95760008555620002f5565b82601f10620002c457805160ff1916838001178555620002f5565b82800160010185558215620002f5579182015b82811115620002f4578251825591602001919060010190620002d7565b5b50905062000304919062000308565b5090565b5b808211156200032357600081600090555060010162000309565b5090565b6000604051905090565b600080fd5b600080fd5b600080fd5b600080fd5b6000601f19601f8301169050919050565b7f4e487b7100000000000000000000000000000000000000000000000000000000600052604160045260246000fd5b620003908262000345565b810181811067ffffffffffffffff82111715620003b257620003b162000356565b5b80604052505050565b6000620003c762000327565b9050620003d5828262000385565b919050565b600067ffffffffffffffff821115620003f857620003f762000356565b5b620004038262000345565b9050602081019050919050565b60005b838110156200043057808201518184015260208101905062000413565b8381111562000440576000848401525b50505050565b60006200045d6200045784620003da565b620003bb565b9050828152602081018484840111156200047c576200047b62000340565b5b6200048984828562000410565b509392505050565b600082601f830112620004a957620004a86200033b565b5b8151620004bb84826020860162000446565b91505092915050565b600080600060608486031215620004e057620004df62000331565b5b600084015167ffffffffffffffff81111562000501576200050062000336565b5b6200050f8682870162000491565b935050602084015167ffffffffffffffff81111562000533576200053262000336565b5b620005418682870162000491565b925050604084015167ffffffffffffffff81111562000565576200056462000336565b5b620005738682870162000491565b9150509250925092565b600073ffffffffffffffffffffffffffffffffffffffff82169050919050565b6000620005aa826200057d565b9050919050565b620005bc816200059d565b82525050565b6000602082019050620005d96000830184620005b1565b92915050565b7f4e487b7100000000000000000000000000000000000000000000000000000000600052602260045260246000fd5b600060028204905060018216806200062757607f821691505b602082108114156200063e576200063d620005df565b5b50919050565b61265580620006546000396000f3fe608060405234801561001057600080fd5b50600436106101425760003560e01c80634f6ccce7116100b8578063b88d4fde1161007c578063b88d4fde14610363578063bdc32be01461037f578063c87b56dd1461039d578063cdbce03d146103cd578063e985e9c5146103eb578063f2fde38b1461041b57610142565b80634f6ccce7146102ad5780636352211e146102dd57806370a082311461030d5780638456cb591461033d578063a22cb4651461034757610142565b806318160ddd1161010a57806318160ddd146101ff57806323b872dd1461021d5780632f745c59146102395780633b7104f2146102695780633f4ba83a1461028757806342842e0e1461029157610142565b806301ffc9a714610147578063081812fc14610177578063095ea7b3146101a757806315070401146101c357806317d7de7c146101e1575b600080fd5b610161600480360381019061015c91906119f3565b610437565b60405161016e9190611a3b565b60405180910390f35b610191600480360381019061018c9190611a8c565b61049f565b60405161019e9190611afa565b60405180910390f35b6101c160048036038101906101bc9190611b41565b610524565b005b6101cb6106e3565b6040516101d89190611c1a565b60405180910390f35b6101e9610775565b6040516101f69190611c1a565b60405180910390f35b610207610807565b6040516102149190611c4b565b60405180910390f35b61023760048036038101906102329190611c66565b610814565b005b610253600480360381019061024e9190611b41565b610837565b6040516102609190611c4b565b60405180910390f35b6102716108b1565b60405161027e9190611a3b565b60405180910390f35b61028f6108c7565b005b6102ab60048036038101906102a69190611c66565b6109ff565b005b6102c760048036038101906102c29190611a8c565b610a1f565b6040516102d49190611c4b565b60405180910390f35b6102f760048036038101906102f29190611a8c565b610a5a565b6040516103049190611afa565b60405180910390f35b61032760048036038101906103229190611cb9565b610a97565b6040516103349190611c4b565b60405180910390f35b610345610ae7565b005b610361600480360381019061035c9190611d12565b610c17565b005b61037d60048036038101906103789190611e87565b610d4d565b005b610387610d73565b6040516103949190611c1a565b60405180910390f35b6103b760048036038101906103b29190611a8c565b610e05565b6040516103c49190611c1a565b60405180910390f35b6103d5610ebc565b6040516103e29190611afa565b60405180910390f35b61040560048036038101906104009190611f0a565b610ee5565b6040516104129190611a3b565b60405180910390f35b61043560048036038101906104309190611cb9565b610f79565b005b600060016000837bffffffffffffffffffffffffffffffffffffffffffffffffffffffff19167bffffffffffffffffffffffffffffffffffffffffffffffffffffffff1916815260200190815260200160002060009054906101000a900460ff169050919050565b60006104aa82611111565b6104e9576040517f08c379a00000000000000000000000000000000000000000000000000000000081526004016104e090611fbc565b60405180910390fd5b6003600083815260200190815260200160002060009054906101000a900473ffffffffffffffffffffffffffffffffffffffff169050919050565b61052d81610a5a565b73ffffffffffffffffffffffffffffffffffffffff168273ffffffffffffffffffffffffffffffffffffffff16141561059b576040517f08c379a00000000000000000000000000000000000000000000000000000000081526004016105929061204e565b60405180910390fd5b3373ffffffffffffffffffffffffffffffffffffffff166105bb82610a5a565b73ffffffffffffffffffffffffffffffffffffffff1614806105eb57506105ea6105e482610a5a565b33610ee5565b5b61062a576040517f08c379a0000000000000000000000000000000000000000000000000000000008152600401610621906120ba565b60405180910390fd5b816003600083815260200190815260200160002060006101000a81548173ffffffffffffffffffffffffffffffffffffffff021916908373ffffffffffffffffffffffffffffffffffffffff160217905550808273ffffffffffffffffffffffffffffffffffffffff1661069d83610a5a565b73ffffffffffffffffffffffffffffffffffffffff167f8c5be1e5ebec7d5bd14f71427d1e84f3dd0314c0f7b2291e5b200ac8c7c3b92560405160405180910390a45050565b6060600b80546106f290612109565b80601f016020809104026020016040519081016040528092919081815260200182805461071e90612109565b801561076b5780601f106107405761010080835404028352916020019161076b565b820191906000526020600020905b81548152906001019060200180831161074e57829003601f168201915b5050505050905090565b6060600a805461078490612109565b80601f01602080910402602001604051908101604052809291908181526020018280546107b090612109565b80156107fd5780601f106107d2576101008083540402835291602001916107fd565b820191906000526020600020905b8154815290600101906020018083116107e057829003601f168201915b5050505050905090565b6000600880549050905090565b61081e3382611183565b61082757600080fd5b610832838383611218565b505050565b600061084283610a97565b821061084d57600080fd5b600660008473ffffffffffffffffffffffffffffffffffffffff1673ffffffffffffffffffffffffffffffffffffffff168152602001908152602001600020828154811061089e5761089d61213b565b5b9060005260206000200154905092915050565b60008060149054906101000a900460ff16905090565b60001515600060149054906101000a900460ff1615151461091d576040517f08c379a0000000000000000000000000000000000000000000000000000000008152600401610914906121b6565b60405180910390fd5b3373ffffffffffffffffffffffffffffffffffffffff1660008054906101000a900473ffffffffffffffffffffffffffffffffffffffff1673ffffffffffffffffffffffffffffffffffffffff16146109ab576040517f08c379a00000000000000000000000000000000000000000000000000000000081526004016109a290612222565b60405180910390fd5b6001600060146101000a81548160ff0219169083151502179055507f5db9ee0a495bf2e6ff9c91a7834c1ba4fdd244a5e8aa4e537bd38aeae4b073aa336040516109f59190611afa565b60405180910390a1565b610a1a83838360405180602001604052806000815250610d4d565b505050565b6000610a29610807565b8210610a3457600080fd5b60088281548110610a4857610a4761213b565b5b90600052602060002001549050919050565b60006002600083815260200190815260200160002060009054906101000a900473ffffffffffffffffffffffffffffffffffffffff169050919050565b6000610ae0600460008473ffffffffffffffffffffffffffffffffffffffff1673ffffffffffffffffffffffffffffffffffffffff16815260200190815260200160002061123c565b9050919050565b600060149054906101000a900460ff16610b36576040517f08c379a0000000000000000000000000000000000000000000000000000000008152600401610b2d9061228e565b60405180910390fd5b3373ffffffffffffffffffffffffffffffffffffffff1660008054906101000a900473ffffffffffffffffffffffffffffffffffffffff1673ffffffffffffffffffffffffffffffffffffffff1614610bc4576040517f08c379a0000000000000000000000000000000000000000000000000000000008152600401610bbb90612222565b60405180910390fd5b60008060146101000a81548160ff0219169083151502179055507f62e78cea01bee320cd4e420270b5ea74000d11b0c9f74754ebdbfc544b05a25833604051610c0d9190611afa565b60405180910390a1565b3373ffffffffffffffffffffffffffffffffffffffff168273ffffffffffffffffffffffffffffffffffffffff161415610c5057600080fd5b80600560003373ffffffffffffffffffffffffffffffffffffffff1673ffffffffffffffffffffffffffffffffffffffff16815260200190815260200160002060008473ffffffffffffffffffffffffffffffffffffffff1673ffffffffffffffffffffffffffffffffffffffff16815260200190815260200160002060006101000a81548160ff0219169083151502179055508173ffffffffffffffffffffffffffffffffffffffff163373ffffffffffffffffffffffffffffffffffffffff167f17307eab39ab6107e8899845ad3d59bd9653f200f220920489ca2b5937696c3183604051610d419190611a3b565b60405180910390a35050565b610d58848484610814565b610d648484848461124a565b610d6d57600080fd5b50505050565b6060600c8054610d8290612109565b80601f0160208091040260200160405190810160405280929190818152602001828054610dae90612109565b8015610dfb5780601f10610dd057610100808354040283529160200191610dfb565b820191906000526020600020905b815481529060010190602001808311610dde57829003601f168201915b5050505050905090565b6060610e1082611111565b610e1957600080fd5b600d60008381526020019081526020016000208054610e3790612109565b80601f0160208091040260200160405190810160405280929190818152602001828054610e6390612109565b8015610eb05780601f10610e8557610100808354040283529160200191610eb0565b820191906000526020600020905b815481529060010190602001808311610e9357829003601f168201915b50505050509050919050565b60008060009054906101000a900473ffffffffffffffffffffffffffffffffffffffff16905090565b6000600560008473ffffffffffffffffffffffffffffffffffffffff1673ffffffffffffffffffffffffffffffffffffffff16815260200190815260200160002060008373ffffffffffffffffffffffffffffffffffffffff1673ffffffffffffffffffffffffffffffffffffffff16815260200190815260200160002060009054906101000a900460ff16905092915050565b3373ffffffffffffffffffffffffffffffffffffffff1660008054906101000a900473ffffffffffffffffffffffffffffffffffffffff1673ffffffffffffffffffffffffffffffffffffffff1614611007576040517f08c379a0000000000000000000000000000000000000000000000000000000008152600401610ffe90612222565b60405180910390fd5b600073ffffffffffffffffffffffffffffffffffffffff168173ffffffffffffffffffffffffffffffffffffffff161415611077576040517f08c379a000000000000000000000000000000000000000000000000000000000815260040161106e90612320565b60405180910390fd5b806000806101000a81548173ffffffffffffffffffffffffffffffffffffffff021916908373ffffffffffffffffffffffffffffffffffffffff1602179055507f04dba622d284ed0014ee4b9a6a68386be1a4c08a4913ae272de89199cc68616360008054906101000a900473ffffffffffffffffffffffffffffffffffffffff166040516111069190611afa565b60405180910390a150565b6000806002600084815260200190815260200160002060009054906101000a900473ffffffffffffffffffffffffffffffffffffffff169050600073ffffffffffffffffffffffffffffffffffffffff168173ffffffffffffffffffffffffffffffffffffffff161415915050919050565b60008061118f83610a5a565b90508073ffffffffffffffffffffffffffffffffffffffff168473ffffffffffffffffffffffffffffffffffffffff1614806111fe57508373ffffffffffffffffffffffffffffffffffffffff166111e68461049f565b73ffffffffffffffffffffffffffffffffffffffff16145b8061120f575061120e8185610ee5565b5b91505092915050565b611223838383611352565b61122d83826115c9565b6112378282611780565b505050565b600081600001549050919050565b600061126b8473ffffffffffffffffffffffffffffffffffffffff16611844565b611278576001905061134a565b60008473ffffffffffffffffffffffffffffffffffffffff1663150b7a02338887876040518563ffffffff1660e01b81526004016112b99493929190612395565b6020604051808303816000875af11580156112d8573d6000803e3d6000fd5b505050506040513d601f19601f820116820180604052508101906112fc91906123f6565b905063150b7a0260e01b7bffffffffffffffffffffffffffffffffffffffffffffffffffffffff1916817bffffffffffffffffffffffffffffffffffffffffffffffffffffffff1916149150505b949350505050565b61135b81611111565b61139a576040517f08c379a000000000000000000000000000000000000000000000000000000000815260040161139190611fbc565b60405180910390fd5b8273ffffffffffffffffffffffffffffffffffffffff166113ba82610a5a565b73ffffffffffffffffffffffffffffffffffffffff1614611410576040517f08c379a000000000000000000000000000000000000000000000000000000000815260040161140790612495565b60405180910390fd5b600073ffffffffffffffffffffffffffffffffffffffff168273ffffffffffffffffffffffffffffffffffffffff161415611480576040517f08c379a000000000000000000000000000000000000000000000000000000000815260040161147790612501565b60405180910390fd5b61148981611857565b6114d0600460008573ffffffffffffffffffffffffffffffffffffffff1673ffffffffffffffffffffffffffffffffffffffff168152602001908152602001600020611915565b611517600460008473ffffffffffffffffffffffffffffffffffffffff1673ffffffffffffffffffffffffffffffffffffffff168152602001908152602001600020611971565b816002600083815260200190815260200160002060006101000a81548173ffffffffffffffffffffffffffffffffffffffff021916908373ffffffffffffffffffffffffffffffffffffffff160217905550808273ffffffffffffffffffffffffffffffffffffffff168473ffffffffffffffffffffffffffffffffffffffff167fddf252ad1be2c89b69c2b068fc378daa952ba7f163c4a11628f55a4df523b3ef60405160405180910390a4505050565b60006001600660008573ffffffffffffffffffffffffffffffffffffffff1673ffffffffffffffffffffffffffffffffffffffff1681526020019081526020016000208054905061161a9190612550565b9050600060076000848152602001908152602001600020549050818114611715576000600660008673ffffffffffffffffffffffffffffffffffffffff1673ffffffffffffffffffffffffffffffffffffffff168152602001908152602001600020838154811061168e5761168d61213b565b5b9060005260206000200154905080600660008773ffffffffffffffffffffffffffffffffffffffff1673ffffffffffffffffffffffffffffffffffffffff16815260200190815260200160002083815481106116ed576116ec61213b565b5b9060005260206000200181905550816007600083815260200190815260200160002081905550505b600660008573ffffffffffffffffffffffffffffffffffffffff1673ffffffffffffffffffffffffffffffffffffffff16815260200190815260200160002080548061176457611763612584565b5b6001900381819060005260206000200160009055905550505050565b600660008373ffffffffffffffffffffffffffffffffffffffff1673ffffffffffffffffffffffffffffffffffffffff168152602001908152602001600020805490506007600083815260200190815260200160002081905550600660008373ffffffffffffffffffffffffffffffffffffffff1673ffffffffffffffffffffffffffffffffffffffff1681526020019081526020016000208190806001815401808255809150506001900390600052602060002001600090919091909150555050565b600080823b905060008111915050919050565b600073ffffffffffffffffffffffffffffffffffffffff166003600083815260200190815260200160002060009054906101000a900473ffffffffffffffffffffffffffffffffffffffff1673ffffffffffffffffffffffffffffffffffffffff16146119125760006003600083815260200190815260200160002060006101000a81548173ffffffffffffffffffffffffffffffffffffffff021916908373ffffffffffffffffffffffffffffffffffffffff1602179055505b50565b60008160000154905060008111611961576040517f08c379a0000000000000000000000000000000000000000000000000000000008152600401611958906125ff565b60405180910390fd5b6001810382600001819055505050565b6001816000016000828254019250508190555050565b6000604051905090565b600080fd5b600080fd5b60007fffffffff0000000000000000000000000000000000000000000000000000000082169050919050565b6119d08161199b565b81146119db57600080fd5b50565b6000813590506119ed816119c7565b92915050565b600060208284031215611a0957611a08611991565b5b6000611a17848285016119de565b91505092915050565b60008115159050919050565b611a3581611a20565b82525050565b6000602082019050611a506000830184611a2c565b92915050565b6000819050919050565b611a6981611a56565b8114611a7457600080fd5b50565b600081359050611a8681611a60565b92915050565b600060208284031215611aa257611aa1611991565b5b6000611ab084828501611a77565b91505092915050565b600073ffffffffffffffffffffffffffffffffffffffff82169050919050565b6000611ae482611ab9565b9050919050565b611af481611ad9565b82525050565b6000602082019050611b0f6000830184611aeb565b92915050565b611b1e81611ad9565b8114611b2957600080fd5b50565b600081359050611b3b81611b15565b92915050565b60008060408385031215611b5857611b57611991565b5b6000611b6685828601611b2c565b9250506020611b7785828601611a77565b9150509250929050565b600081519050919050565b600082825260208201905092915050565b60005b83811015611bbb578082015181840152602081019050611ba0565b83811115611bca576000848401525b50505050565b6000601f19601f8301169050919050565b6000611bec82611b81565b611bf68185611b8c565b9350611c06818560208601611b9d565b611c0f81611bd0565b840191505092915050565b60006020820190508181036000830152611c348184611be1565b905092915050565b611c4581611a56565b82525050565b6000602082019050611c606000830184611c3c565b92915050565b600080600060608486031215611c7f57611c7e611991565b5b6000611c8d86828701611b2c565b9350506020611c9e86828701611b2c565b9250506040611caf86828701611a77565b9150509250925092565b600060208284031215611ccf57611cce611991565b5b6000611cdd84828501611b2c565b91505092915050565b611cef81611a20565b8114611cfa57600080fd5b50565b600081359050611d0c81611ce6565b92915050565b60008060408385031215611d2957611d28611991565b5b6000611d3785828601611b2c565b9250506020611d4885828601611cfd565b9150509250929050565b600080fd5b600080fd5b7f4e487b7100000000000000000000000000000000000000000000000000000000600052604160045260246000fd5b611d9482611bd0565b810181811067ffffffffffffffff82111715611db357611db2611d5c565b5b80604052505050565b6000611dc6611987565b9050611dd28282611d8b565b919050565b600067ffffffffffffffff821115611df257611df1611d5c565b5b611dfb82611bd0565b9050602081019050919050565b82818337600083830152505050565b6000611e2a611e2584611dd7565b611dbc565b905082815260208101848484011115611e4657611e45611d57565b5b611e51848285611e08565b509392505050565b600082601f830112611e6e57611e6d611d52565b5b8135611e7e848260208601611e17565b91505092915050565b60008060008060808587031215611ea157611ea0611991565b5b6000611eaf87828801611b2c565b9450506020611ec087828801611b2c565b9350506040611ed187828801611a77565b925050606085013567ffffffffffffffff811115611ef257611ef1611996565b5b611efe87828801611e59565b91505092959194509250565b60008060408385031215611f2157611f20611991565b5b6000611f2f85828601611b2c565b9250506020611f4085828601611b2c565b9150509250929050565b7f4552524f523a20544f4b454e20454e544552454420444f45534e27542045584960008201527f5354000000000000000000000000000000000000000000000000000000000000602082015250565b6000611fa6602283611b8c565b9150611fb182611f4a565b604082019050919050565b60006020820190508181036000830152611fd581611f99565b9050919050565b7f4552524f523a204144445245535320414c524541445920544845204f574e455260008201527f204f462054484520544f4b454e00000000000000000000000000000000000000602082015250565b6000612038602d83611b8c565b915061204382611fdc565b604082019050919050565b600060208201905081810360008301526120678161202b565b9050919050565b7f4552524f523a2043414c4c4552204953204e4f5420544f4b454e204f574e4552600082015250565b60006120a4602083611b8c565b91506120af8261206e565b602082019050919050565b600060208201905081810360008301526120d381612097565b9050919050565b7f4e487b7100000000000000000000000000000000000000000000000000000000600052602260045260246000fd5b6000600282049050600182168061212157607f821691505b60208210811415612135576121346120da565b5b50919050565b7f4e487b7100000000000000000000000000000000000000000000000000000000600052603260045260246000fd5b7f434f4e5452414354204953204e4f542050415553454400000000000000000000600082015250565b60006121a0601683611b8c565b91506121ab8261216a565b602082019050919050565b600060208201905081810360008301526121cf81612193565b9050919050565b7f4e4f54204f574e45520000000000000000000000000000000000000000000000600082015250565b600061220c600983611b8c565b9150612217826121d6565b602082019050919050565b6000602082019050818103600083015261223b816121ff565b9050919050565b7f434f4e5452414354204953205041555345440000000000000000000000000000600082015250565b6000612278601283611b8c565b915061228382612242565b602082019050919050565b600060208201905081810360008301526122a78161226b565b9050919050565b7f4552524f523a204144445245535320454e5445524544204953204e4f5420564160008201527f4c49440000000000000000000000000000000000000000000000000000000000602082015250565b600061230a602383611b8c565b9150612315826122ae565b604082019050919050565b60006020820190508181036000830152612339816122fd565b9050919050565b600081519050919050565b600082825260208201905092915050565b600061236782612340565b612371818561234b565b9350612381818560208601611b9d565b61238a81611bd0565b840191505092915050565b60006080820190506123aa6000830187611aeb565b6123b76020830186611aeb565b6123c46040830185611c3c565b81810360608301526123d6818461235c565b905095945050505050565b6000815190506123f0816119c7565b92915050565b60006020828403121561240c5761240b611991565b5b600061241a848285016123e1565b91505092915050565b7f4552524f523a202746524f4d272041444452455353204953204e4f54204f574e60008201527f4552204f462054484520544f4b454e0000000000000000000000000000000000602082015250565b600061247f602f83611b8c565b915061248a82612423565b604082019050919050565b600060208201905081810360008301526124ae81612472565b9050919050565b7f4552524f523a2027544f272041444452455353204953204e4f542056414c4944600082015250565b60006124eb602083611b8c565b91506124f6826124b5565b602082019050919050565b6000602082019050818103600083015261251a816124de565b9050919050565b7f4e487b7100000000000000000000000000000000000000000000000000000000600052601160045260246000fd5b600061255b82611a56565b915061256683611a56565b92508282101561257957612578612521565b5b828203905092915050565b7f4e487b7100000000000000000000000000000000000000000000000000000000600052603160045260246000fd5b7f436f756e7465723a2064656372656d656e74206f766572666c6f770000000000600082015250565b60006125e9601b83611b8c565b91506125f4826125b3565b602082019050919050565b60006020820190508181036000830152612618816125dc565b905091905056fea2646970667358221220973420db28a1effeabe92fd50aeb0329788fe39aaccacf0fee9c8226dbc8b35264736f6c634300080b0033",
  "immutableReferences": {},
  "source": "// SPDX-License-Identifier: MIT\npragma solidity ^0.8.0;\n\n\nimport \"@openzeppelin/contracts/utils/Address.sol\";\nimport \"@openzeppelin/contracts/utils/Counters.sol\";\nimport \"@openzeppelin/contracts/utils/math/SafeMath.sol\";\nimport \"@openzeppelin/contracts/token/ERC721/IERC721Receiver.sol\";\nimport \"@openzeppelin/contracts/utils/Strings.sol\";\nimport \"./Concat.sol\";\n\n\n/********************************************************************************************/\n/*                                          Ownable                                         */\n/********************************************************************************************/\ncontract Ownable {\n    address private _owner;\n\n\n    event OwnershipTransferred(address);\n\n\n    constructor() {\n        _owner = msg.sender;\n        emit OwnershipTransferred(_owner);\n    }\n\n\n    modifier onlyOwner() {\n        require(_owner == msg.sender, \"NOT OWNER\");\n        _;\n    }\n\n\n    function checkOwner() public view returns(address){\n        return _owner;\n    }\n\n    function transferOwnership(address newOwner) public onlyOwner {\n        require(address(newOwner) != address(0), \"ERROR: ADDRESS ENTERED IS NOT VALID\");\n        _owner = newOwner;\n\n        emit OwnershipTransferred(_owner);\n    }\n}\n\n\n/********************************************************************************************/\n/*                                         Pausable                                         */\n/********************************************************************************************/\ncontract Pausable is Ownable {\n    bool private _paused;\n    \n\n    event Paused(address);\n    event Unpaused(address);\n\n\n    constructor () {\n        _paused = false;\n\n        emit Paused(msg.sender);\n    }\n\n    modifier whenNotPaused() {\n        require(_paused, \"CONTRACT IS PAUSED\");\n        _;\n    }\n\n    modifier paused() {\n        require(_paused == false, \"CONTRACT IS NOT PAUSED\");\n        _;\n    }\n\n\n    function checkStatus() public view returns(bool){\n        return _paused;\n    }\n\n    function unpause() public paused() onlyOwner() {\n        _paused = true;\n\n        emit Unpaused(msg.sender);\n    }\n\n    function pause() public whenNotPaused() onlyOwner() {\n        _paused = false;\n\n        emit Paused(msg.sender);\n    }\n}\n\n\n/********************************************************************************************/\n/*                                          ERC165                                          */\n/*                            https://eips.ethereum.org/EIPS/eip-165                        */\n/********************************************************************************************/\ncontract ERC165 {\n    bytes4 private constant _INTERFACE_ID_ERC165 = 0x01ffc9a7;\n    /*\n     * 0x01ffc9a7 ===\n     *     bytes4(keccak256('supportsInterface(bytes4)'))\n     */\n\n    mapping(bytes4 => bool) private _supportedInterfaces;\n\n\n    constructor () {\n        _registerInterface(_INTERFACE_ID_ERC165);\n    }\n\n\n    function supportsInterface(bytes4 interfaceId) external view returns (bool) {\n        return _supportedInterfaces[interfaceId];\n    }\n\n    function _registerInterface(bytes4 interfaceId) internal {\n        require(interfaceId != 0xffffffff);\n        _supportedInterfaces[interfaceId] = true;\n    }\n}\n\n\n/********************************************************************************************/\n/*                               ERC721 (NON FUNGIBLE TOKEN)                                */\n/********************************************************************************************/\ncontract ERC721 is Pausable, ERC165 {\n\n    event Transfer(address indexed from, address indexed to, uint256 indexed tokenId);\n    event Approval(address indexed owner, address indexed approved, uint256 indexed tokenId);\n    event ApprovalForAll(address indexed owner, address indexed operator, bool approved);\n    \n    using SafeMath for uint256;\n    using Address for address;\n    using Counters for Counters.Counter;\n\n    bytes4 private constant _ERC721_RECEIVED = 0x150b7a02;\n    \n    mapping (uint256 => address) private _tokenOwner;\n    \n    mapping (uint256 => address) private _tokenApprovals;\n    \n    mapping (address => Counters.Counter) private _ownedTokensCount;\n    \n    mapping (address => mapping (address => bool)) private _operatorApprovals;\n    \n    bytes4 private constant _INTERFACE_ID_ERC721 = 0x80ac58cd;\n\n\n    constructor () {\n        _registerInterface(_INTERFACE_ID_ERC721);\n    }\n\n\n    function balanceOf(address owner) public view returns (uint256) {\n        return Counters.current(_ownedTokensCount[owner]);\n    }\n\n    function ownerOf(uint256 tokenId) public view returns (address) {\n        return _tokenOwner[tokenId];\n    }\n\n    function approve(address to, uint256 tokenId) public {\n        require(to != ownerOf(tokenId), \"ERROR: ADDRESS ALREADY THE OWNER OF THE TOKEN\");\n        require(ownerOf(tokenId) == msg.sender || isApprovedForAll(ownerOf(tokenId), msg.sender), \"ERROR: CALLER IS NOT TOKEN OWNER\");\n\n        _tokenApprovals[tokenId] = to;\n\n        emit Approval(ownerOf(tokenId), to, tokenId);\n    }\n\n    function getApproved(uint256 tokenId) public view returns (address) {\n        require(_exists(tokenId), \"ERROR: TOKEN ENTERED DOESN'T EXIST\" );\n\n        return _tokenApprovals[tokenId];\n    }\n\n    function setApprovalForAll(address to, bool approved) public {\n        require(to != msg.sender);\n        \n        _operatorApprovals[msg.sender][to] = approved;\n\n        emit ApprovalForAll(msg.sender, to, approved);\n    }\n\n    function isApprovedForAll(address owner, address operator) public view returns (bool) {\n        return _operatorApprovals[owner][operator];\n    }\n\n    function transferFrom(address from, address to, uint256 tokenId) public {\n        require(_isApprovedOrOwner(msg.sender, tokenId));\n\n        _transferFrom(from, to, tokenId);\n    }\n\n    function safeTransferFrom(address from, address to, uint256 tokenId) public {\n        safeTransferFrom(from, to, tokenId, \"\");\n    }\n\n    function safeTransferFrom(address from, address to, uint256 tokenId, bytes memory _data) public {\n        transferFrom(from, to, tokenId);\n        require(_checkOnERC721Received(from, to, tokenId, _data));\n    }\n\n    function _exists(uint256 tokenId) internal view returns (bool) {\n        address owner = _tokenOwner[tokenId];\n        return owner != address(0);\n    }\n\n    function _isApprovedOrOwner(address spender, uint256 tokenId) internal view returns (bool) {\n        address owner = ownerOf(tokenId);\n        return (spender == owner || getApproved(tokenId) == spender || isApprovedForAll(owner, spender));\n    }\n\n    function _mint(address to, uint256 tokenId) virtual internal {\n        require(!_exists(tokenId), \"ERROR: TOKEN ENTERED ALREADY EXISTS\");\n        require(to != address(0) && !to.isContract(), \"ERROR: ADDRESS ENTERED IS NOT VALID\");\n\n        _tokenOwner[tokenId] = to;\n        _ownedTokensCount[to].increment();\n\n        emit Transfer(msg.sender, to, tokenId);\n    }\n\n    function _transferFrom(address from, address to, uint256 tokenId) virtual internal {\n        require(_exists(tokenId), \"ERROR: TOKEN ENTERED DOESN'T EXIST\" );\n        \n        require(ownerOf(tokenId) == from, \"ERROR: 'FROM' ADDRESS IS NOT OWNER OF THE TOKEN\");\n        \n        require(address(to) != address(0), \"ERROR: 'TO' ADDRESS IS NOT VALID\");\n\n\n        _clearApproval(tokenId);\n\n        _ownedTokensCount[from].decrement();\n        _ownedTokensCount[to].increment();\n        _tokenOwner[tokenId] = to;\n\n        emit Transfer(from, to, tokenId);\n    }\n\n    function _checkOnERC721Received(address from, address to, uint256 tokenId, bytes memory _data) internal returns (bool) {\n        if (!to.isContract()) {\n            return true;\n        }\n\n        bytes4 retval = IERC721Receiver(to).onERC721Received(msg.sender, from, tokenId, _data);\n        return (retval == _ERC721_RECEIVED);\n    }\n\n    function _clearApproval(uint256 tokenId) private {\n        if (_tokenApprovals[tokenId] != address(0)) {\n            _tokenApprovals[tokenId] = address(0);\n        }\n    }\n}\n\n\n/********************************************************************************************/\n/*                               ERC721Enumerable\nFKDLAKL;SA\n/********************************************************************************************/\ncontract ERC721Enumerable is ERC165, ERC721 {\n    mapping(address => uint256[]) private _ownedTokens;\n\n    mapping(uint256 => uint256) private _ownedTokensIndex;\n\n    uint256[] private _allTokens;\n\n    mapping(uint256 => uint256) private _allTokensIndex;\n\n    bytes4 private constant _INTERFACE_ID_ERC721_ENUMERABLE = 0x780e9d63;\n    /*\n     * 0x780e9d63 ===\n     *     bytes4(keccak256('totalSupply()')) ^\n     *     bytes4(keccak256('tokenOfOwnerByIndex(address,uint256)')) ^\n     *     bytes4(keccak256('tokenByIndex(uint256)'))\n     */\n\n    constructor () {\n        // register the supported interface to conform to ERC721Enumerable via ERC165\n        _registerInterface(_INTERFACE_ID_ERC721_ENUMERABLE);\n    }\n\n    function tokenOfOwnerByIndex(address owner, uint256 index) public view returns (uint256) {\n        require(index < balanceOf(owner));\n        return _ownedTokens[owner][index];\n    }\n\n    function totalSupply() public view returns (uint256) {\n        return _allTokens.length;\n    }\n\n    function tokenByIndex(uint256 index) public view returns (uint256) {\n        require(index < totalSupply());\n        return _allTokens[index];\n    }\n\n    function _transferFrom(address from, address to, uint256 tokenId) override internal {\n        super._transferFrom(from, to, tokenId);\n\n        _removeTokenFromOwnerEnumeration(from, tokenId);\n\n        _addTokenToOwnerEnumeration(to, tokenId);\n    }\n\n    function _mint(address to, uint256 tokenId) override internal {\n        super._mint(to, tokenId);\n\n        _addTokenToOwnerEnumeration(to, tokenId);\n\n        _addTokenToAllTokensEnumeration(tokenId);\n    }\n\n    function _tokensOfOwner(address owner) internal view returns (uint256[] storage) {\n        return _ownedTokens[owner];\n    }\n\n    function _addTokenToOwnerEnumeration(address to, uint256 tokenId) private {\n        _ownedTokensIndex[tokenId] = _ownedTokens[to].length;\n        _ownedTokens[to].push(tokenId);\n    }\n\n    function _addTokenToAllTokensEnumeration(uint256 tokenId) private {\n        _allTokensIndex[tokenId] = _allTokens.length;\n        _allTokens.push(tokenId);\n    }\n\n    function _removeTokenFromOwnerEnumeration(address from, uint256 tokenId) private {\n        //**uint256 lastTokenIndex = _ownedTokens[from].length.sub(1);\n        uint256 lastTokenIndex = _ownedTokens[from].length - 1;\n        uint256 tokenIndex = _ownedTokensIndex[tokenId];\n\n        if (tokenIndex != lastTokenIndex) {\n            uint256 lastTokenId = _ownedTokens[from][lastTokenIndex];\n\n            _ownedTokens[from][tokenIndex] = lastTokenId; // Move the last token to the slot of the to-delete token\n            _ownedTokensIndex[lastTokenId] = tokenIndex; // Update the moved token's index\n        }\n\n        // This also deletes the contents at the last position of the array\n        //**_ownedTokens[from].length--;\n        _ownedTokens[from].pop();\n\n        // Note that _ownedTokensIndex[tokenId] hasn't been cleared: it still points to the old slot (now occupied by\n        // lastTokenId, or just over the end of the array if the token was the last one).\n    }\n\n    function _removeTokenFromAllTokensEnumeration(uint256 tokenId) private {\n        //**uint256 lastTokenIndex = _allTokens.length.sub(1);\n        uint256 lastTokenIndex = _allTokens.length - 1;\n        uint256 tokenIndex = _allTokensIndex[tokenId];\n\n        uint256 lastTokenId = _allTokens[lastTokenIndex];\n\n        _allTokens[tokenIndex] = lastTokenId; // Move the last token to the slot of the to-delete token\n        _allTokensIndex[lastTokenId] = tokenIndex; // Update the moved token's index\n\n        _allTokens.pop();\n        _allTokensIndex[tokenId] = 0;\n    }\n}\n\ncontract ERC721Metadata is ERC721Enumerable {//, usingOraclize {\n\n    string private _name;\n    string private _symbol;\n    string private _baseTokenURI; \n\n    mapping(uint256 => string) private _tokenURIs;\n\n    bytes4 private constant _INTERFACE_ID_ERC721_METADATA = 0x5b5e139f;\n    /*\n     * 0x5b5e139f ===\n     *     bytes4(keccak256('name()')) ^\n     *     bytes4(keccak256('symbol()')) ^\n     *     bytes4(keccak256('tokenURI(uint256)'))\n     */\n\n\n    constructor (string memory name, string memory symbol, string memory baseTokenURI) {\n        _name = name;\n        _symbol = symbol;\n        _baseTokenURI = baseTokenURI;\n\n        _registerInterface(_INTERFACE_ID_ERC721_METADATA);\n    }\n\n    function getName() external view returns(string memory) {\n        return _name;\n    }\n\n    function getSymbol() external view returns(string memory) {\n        return _symbol;\n    }\n\n    function getBaseTokenURI() external view returns(string memory) {\n        return _baseTokenURI;\n    }\n\n    function tokenURI(uint256 tokenId) external view returns (string memory) {\n        require(_exists(tokenId));\n        return _tokenURIs[tokenId];\n    }\n\n    function setTokenURI(uint256 tokenId) internal {\n        require(_exists(tokenId), \"ERROR: TOKEN ENTERED DOESN'T EXIST\");\n        _tokenURIs[tokenId] = Concat.strConcat(_baseTokenURI, Strings.toString(tokenId));\n    }\n\n}\n\n\ncontract REERC721Token is ERC721Metadata(\"REToken\", \"RST\", \"https://s3-us-west-2.amazonaws.com/udacity-blockchain/capstone/\") {\n\n    function mint(address to, uint256 tokenId) public onlyOwner returns (bool){\n        super._mint(to, tokenId);\n        setTokenURI(tokenId);\n        return true;\n    }\n}",
  "sourcePath": "/Users/fernandomaximof/Documents/udacity-projects/capstone/Blockchain-Capstone/eth-contracts/contracts/ERC721Mintable.sol",
  "compiler": {
    "name": "solc",
    "version": "0.8.11+commit.d7f03943.Emscripten.clang"
  },
  "schemaVersion": "3.4.3",
  "updatedAt": "2022-01-24T08:46:28.479Z",
  "devdoc": {
    "kind": "dev",
    "methods": {},
    "version": 1
  },
  "userdoc": {
    "kind": "user",
    "methods": {},
    "version": 1
  }
}