{
  "contractName": "Ownable",
  "abi": [
    {
      "inputs": [],
      "stateMutability": "nonpayable",
      "type": "constructor"
    },
    {
      "anonymous": false,
      "inputs": [
        {
          "indexed": false,
          "internalType": "address",
          "name": "",
          "type": "address"
        }
      ],
      "name": "OwnershipTransferred",
      "type": "event"
    },
    {
      "inputs": [],
      "name": "checkOwner",
      "outputs": [
        {
          "internalType": "address",
          "name": "",
          "type": "address"
        }
      ],
      "stateMutability": "view",
      "type": "function"
    },
    {
      "inputs": [
        {
          "internalType": "address",
          "name": "newOwner",
          "type": "address"
        }
      ],
      "name": "transferOwnership",
      "outputs": [],
      "stateMutability": "nonpayable",
      "type": "function"
    }
  ],
  "bytecode": "0x608060405234801561001057600080fd5b50336000806101000a81548173ffffffffffffffffffffffffffffffffffffffff021916908373ffffffffffffffffffffffffffffffffffffffff1602179055507f04dba622d284ed0014ee4b9a6a68386be1a4c08a4913ae272de89199cc68616360008054906101000a900473ffffffffffffffffffffffffffffffffffffffff166040516100a091906100ee565b60405180910390a1610109565b600073ffffffffffffffffffffffffffffffffffffffff82169050919050565b60006100d8826100ad565b9050919050565b6100e8816100cd565b82525050565b600060208201905061010360008301846100df565b92915050565b610435806101186000396000f3fe608060405234801561001057600080fd5b50600436106100365760003560e01c8063cdbce03d1461003b578063f2fde38b14610059575b600080fd5b610043610075565b6040516100509190610277565b60405180910390f35b610073600480360381019061006e91906102c3565b61009e565b005b60008060009054906101000a900473ffffffffffffffffffffffffffffffffffffffff16905090565b3373ffffffffffffffffffffffffffffffffffffffff1660008054906101000a900473ffffffffffffffffffffffffffffffffffffffff1673ffffffffffffffffffffffffffffffffffffffff161461012c576040517f08c379a00000000000000000000000000000000000000000000000000000000081526004016101239061034d565b60405180910390fd5b600073ffffffffffffffffffffffffffffffffffffffff168173ffffffffffffffffffffffffffffffffffffffff16141561019c576040517f08c379a0000000000000000000000000000000000000000000000000000000008152600401610193906103df565b60405180910390fd5b806000806101000a81548173ffffffffffffffffffffffffffffffffffffffff021916908373ffffffffffffffffffffffffffffffffffffffff1602179055507f04dba622d284ed0014ee4b9a6a68386be1a4c08a4913ae272de89199cc68616360008054906101000a900473ffffffffffffffffffffffffffffffffffffffff1660405161022b9190610277565b60405180910390a150565b600073ffffffffffffffffffffffffffffffffffffffff82169050919050565b600061026182610236565b9050919050565b61027181610256565b82525050565b600060208201905061028c6000830184610268565b92915050565b600080fd5b6102a081610256565b81146102ab57600080fd5b50565b6000813590506102bd81610297565b92915050565b6000602082840312156102d9576102d8610292565b5b60006102e7848285016102ae565b91505092915050565b600082825260208201905092915050565b7f4e4f54204f574e45520000000000000000000000000000000000000000000000600082015250565b60006103376009836102f0565b915061034282610301565b602082019050919050565b600060208201905081810360008301526103668161032a565b9050919050565b7f4552524f523a204144445245535320454e5445524544204953204e4f5420564160008201527f4c49440000000000000000000000000000000000000000000000000000000000602082015250565b60006103c96023836102f0565b91506103d48261036d565b604082019050919050565b600060208201905081810360008301526103f8816103bc565b905091905056fea2646970667358221220330d2d6bcaa641259f2c1c33f7d25d067a1c8e3371d62088f51b9d73fd1b7d7d64736f6c634300080b0033",
  "immutableReferences": {},
  "source": "// SPDX-License-Identifier: MIT\npragma solidity ^0.8.0;\n\n\nimport \"@openzeppelin/contracts/utils/Address.sol\";\nimport \"@openzeppelin/contracts/utils/Counters.sol\";\nimport \"@openzeppelin/contracts/utils/math/SafeMath.sol\";\nimport \"@openzeppelin/contracts/token/ERC721/IERC721Receiver.sol\";\nimport \"@openzeppelin/contracts/utils/Strings.sol\";\nimport \"./Concat.sol\";\n\n\n/********************************************************************************************/\n/*                                          Ownable                                         */\n/********************************************************************************************/\ncontract Ownable {\n    address private _owner;\n\n\n    event OwnershipTransferred(address);\n\n\n    constructor() {\n        _owner = msg.sender;\n        emit OwnershipTransferred(_owner);\n    }\n\n\n    modifier onlyOwner() {\n        require(_owner == msg.sender, \"NOT OWNER\");\n        _;\n    }\n\n\n    function checkOwner() public view returns(address){\n        return _owner;\n    }\n\n    function transferOwnership(address newOwner) public onlyOwner {\n        require(address(newOwner) != address(0), \"ERROR: ADDRESS ENTERED IS NOT VALID\");\n        _owner = newOwner;\n\n        emit OwnershipTransferred(_owner);\n    }\n}\n\n\n/********************************************************************************************/\n/*                                         Pausable                                         */\n/********************************************************************************************/\ncontract Pausable is Ownable {\n    bool private _paused;\n    \n\n    event Paused(address);\n    event Unpaused(address);\n\n\n    constructor () {\n        _paused = false;\n\n        emit Paused(msg.sender);\n    }\n\n    modifier whenNotPaused() {\n        require(_paused, \"CONTRACT IS PAUSED\");\n        _;\n    }\n\n    modifier paused() {\n        require(_paused == false, \"CONTRACT IS NOT PAUSED\");\n        _;\n    }\n\n\n    function checkStatus() public view returns(bool){\n        return _paused;\n    }\n\n    function unpause() public paused() onlyOwner() {\n        _paused = true;\n\n        emit Unpaused(msg.sender);\n    }\n\n    function pause() public whenNotPaused() onlyOwner() {\n        _paused = false;\n\n        emit Paused(msg.sender);\n    }\n}\n\n\n/********************************************************************************************/\n/*                                          ERC165                                          */\n/*                            https://eips.ethereum.org/EIPS/eip-165                        */\n/********************************************************************************************/\ncontract ERC165 {\n    bytes4 private constant _INTERFACE_ID_ERC165 = 0x01ffc9a7;\n    /*\n     * 0x01ffc9a7 ===\n     *     bytes4(keccak256('supportsInterface(bytes4)'))\n     */\n\n    mapping(bytes4 => bool) private _supportedInterfaces;\n\n\n    constructor () {\n        _registerInterface(_INTERFACE_ID_ERC165);\n    }\n\n\n    function supportsInterface(bytes4 interfaceId) external view returns (bool) {\n        return _supportedInterfaces[interfaceId];\n    }\n\n    function _registerInterface(bytes4 interfaceId) internal {\n        require(interfaceId != 0xffffffff);\n        _supportedInterfaces[interfaceId] = true;\n    }\n}\n\n\n/********************************************************************************************/\n/*                               ERC721 (NON FUNGIBLE TOKEN)                                */\n/********************************************************************************************/\ncontract ERC721 is Pausable, ERC165 {\n\n    event Transfer(address indexed from, address indexed to, uint256 indexed tokenId);\n    event Approval(address indexed owner, address indexed approved, uint256 indexed tokenId);\n    event ApprovalForAll(address indexed owner, address indexed operator, bool approved);\n    \n    using SafeMath for uint256;\n    using Address for address;\n    using Counters for Counters.Counter;\n\n    bytes4 private constant _ERC721_RECEIVED = 0x150b7a02;\n    \n    mapping (uint256 => address) private _tokenOwner;\n    \n    mapping (uint256 => address) private _tokenApprovals;\n    \n    mapping (address => Counters.Counter) private _ownedTokensCount;\n    \n    mapping (address => mapping (address => bool)) private _operatorApprovals;\n    \n    bytes4 private constant _INTERFACE_ID_ERC721 = 0x80ac58cd;\n\n\n    constructor () {\n        _registerInterface(_INTERFACE_ID_ERC721);\n    }\n\n\n    function balanceOf(address owner) public view returns (uint256) {\n        return Counters.current(_ownedTokensCount[owner]);\n    }\n\n    function ownerOf(uint256 tokenId) public view returns (address) {\n        return _tokenOwner[tokenId];\n    }\n\n    function approve(address to, uint256 tokenId) public {\n        require(to != ownerOf(tokenId), \"ERROR: ADDRESS ALREADY THE OWNER OF THE TOKEN\");\n        require(ownerOf(tokenId) == msg.sender || isApprovedForAll(ownerOf(tokenId), msg.sender), \"ERROR: CALLER IS NOT TOKEN OWNER\");\n\n        _tokenApprovals[tokenId] = to;\n\n        emit Approval(ownerOf(tokenId), to, tokenId);\n    }\n\n    function getApproved(uint256 tokenId) public view returns (address) {\n        require(_exists(tokenId), \"ERROR: TOKEN ENTERED DOESN'T EXIST\" );\n\n        return _tokenApprovals[tokenId];\n    }\n\n    function setApprovalForAll(address to, bool approved) public {\n        require(to != msg.sender);\n        \n        _operatorApprovals[msg.sender][to] = approved;\n\n        emit ApprovalForAll(msg.sender, to, approved);\n    }\n\n    function isApprovedForAll(address owner, address operator) public view returns (bool) {\n        return _operatorApprovals[owner][operator];\n    }\n\n    function transferFrom(address from, address to, uint256 tokenId) public {\n        require(_isApprovedOrOwner(msg.sender, tokenId));\n\n        _transferFrom(from, to, tokenId);\n    }\n\n    function safeTransferFrom(address from, address to, uint256 tokenId) public {\n        safeTransferFrom(from, to, tokenId, \"\");\n    }\n\n    function safeTransferFrom(address from, address to, uint256 tokenId, bytes memory _data) public {\n        transferFrom(from, to, tokenId);\n        require(_checkOnERC721Received(from, to, tokenId, _data));\n    }\n\n    function _exists(uint256 tokenId) internal view returns (bool) {\n        address owner = _tokenOwner[tokenId];\n        return owner != address(0);\n    }\n\n    function _isApprovedOrOwner(address spender, uint256 tokenId) internal view returns (bool) {\n        address owner = ownerOf(tokenId);\n        return (spender == owner || getApproved(tokenId) == spender || isApprovedForAll(owner, spender));\n    }\n\n    function _mint(address to, uint256 tokenId) virtual internal {\n        require(!_exists(tokenId), \"ERROR: TOKEN ENTERED ALREADY EXISTS\");\n        require(to != address(0) && !to.isContract(), \"ERROR: ADDRESS ENTERED IS NOT VALID\");\n\n        _tokenOwner[tokenId] = to;\n        _ownedTokensCount[to].increment();\n\n        emit Transfer(msg.sender, to, tokenId);\n    }\n\n    function _transferFrom(address from, address to, uint256 tokenId) virtual internal {\n        require(_exists(tokenId), \"ERROR: TOKEN ENTERED DOESN'T EXIST\" );\n        \n        require(ownerOf(tokenId) == from, \"ERROR: 'FROM' ADDRESS IS NOT OWNER OF THE TOKEN\");\n        \n        require(address(to) != address(0), \"ERROR: 'TO' ADDRESS IS NOT VALID\");\n\n\n        _clearApproval(tokenId);\n\n        _ownedTokensCount[from].decrement();\n        _ownedTokensCount[to].increment();\n        _tokenOwner[tokenId] = to;\n\n        emit Transfer(from, to, tokenId);\n    }\n\n    function _checkOnERC721Received(address from, address to, uint256 tokenId, bytes memory _data) internal returns (bool) {\n        if (!to.isContract()) {\n            return true;\n        }\n\n        bytes4 retval = IERC721Receiver(to).onERC721Received(msg.sender, from, tokenId, _data);\n        return (retval == _ERC721_RECEIVED);\n    }\n\n    function _clearApproval(uint256 tokenId) private {\n        if (_tokenApprovals[tokenId] != address(0)) {\n            _tokenApprovals[tokenId] = address(0);\n        }\n    }\n}\n\n\n/********************************************************************************************/\n/*                               ERC721Enumerable\nFKDLAKL;SA\n/********************************************************************************************/\ncontract ERC721Enumerable is ERC165, ERC721 {\n    mapping(address => uint256[]) private _ownedTokens;\n\n    mapping(uint256 => uint256) private _ownedTokensIndex;\n\n    uint256[] private _allTokens;\n\n    mapping(uint256 => uint256) private _allTokensIndex;\n\n    bytes4 private constant _INTERFACE_ID_ERC721_ENUMERABLE = 0x780e9d63;\n    /*\n     * 0x780e9d63 ===\n     *     bytes4(keccak256('totalSupply()')) ^\n     *     bytes4(keccak256('tokenOfOwnerByIndex(address,uint256)')) ^\n     *     bytes4(keccak256('tokenByIndex(uint256)'))\n     */\n\n    constructor () {\n        // register the supported interface to conform to ERC721Enumerable via ERC165\n        _registerInterface(_INTERFACE_ID_ERC721_ENUMERABLE);\n    }\n\n    function tokenOfOwnerByIndex(address owner, uint256 index) public view returns (uint256) {\n        require(index < balanceOf(owner));\n        return _ownedTokens[owner][index];\n    }\n\n    function totalSupply() public view returns (uint256) {\n        return _allTokens.length;\n    }\n\n    function tokenByIndex(uint256 index) public view returns (uint256) {\n        require(index < totalSupply());\n        return _allTokens[index];\n    }\n\n    function _transferFrom(address from, address to, uint256 tokenId) override internal {\n        super._transferFrom(from, to, tokenId);\n\n        _removeTokenFromOwnerEnumeration(from, tokenId);\n\n        _addTokenToOwnerEnumeration(to, tokenId);\n    }\n\n    function _mint(address to, uint256 tokenId) override internal {\n        super._mint(to, tokenId);\n\n        _addTokenToOwnerEnumeration(to, tokenId);\n\n        _addTokenToAllTokensEnumeration(tokenId);\n    }\n\n    function _tokensOfOwner(address owner) internal view returns (uint256[] storage) {\n        return _ownedTokens[owner];\n    }\n\n    function _addTokenToOwnerEnumeration(address to, uint256 tokenId) private {\n        _ownedTokensIndex[tokenId] = _ownedTokens[to].length;\n        _ownedTokens[to].push(tokenId);\n    }\n\n    function _addTokenToAllTokensEnumeration(uint256 tokenId) private {\n        _allTokensIndex[tokenId] = _allTokens.length;\n        _allTokens.push(tokenId);\n    }\n\n    function _removeTokenFromOwnerEnumeration(address from, uint256 tokenId) private {\n        //**uint256 lastTokenIndex = _ownedTokens[from].length.sub(1);\n        uint256 lastTokenIndex = _ownedTokens[from].length - 1;\n        uint256 tokenIndex = _ownedTokensIndex[tokenId];\n\n        if (tokenIndex != lastTokenIndex) {\n            uint256 lastTokenId = _ownedTokens[from][lastTokenIndex];\n\n            _ownedTokens[from][tokenIndex] = lastTokenId; // Move the last token to the slot of the to-delete token\n            _ownedTokensIndex[lastTokenId] = tokenIndex; // Update the moved token's index\n        }\n\n        // This also deletes the contents at the last position of the array\n        //**_ownedTokens[from].length--;\n        _ownedTokens[from].pop();\n\n        // Note that _ownedTokensIndex[tokenId] hasn't been cleared: it still points to the old slot (now occupied by\n        // lastTokenId, or just over the end of the array if the token was the last one).\n    }\n\n    function _removeTokenFromAllTokensEnumeration(uint256 tokenId) private {\n        //**uint256 lastTokenIndex = _allTokens.length.sub(1);\n        uint256 lastTokenIndex = _allTokens.length - 1;\n        uint256 tokenIndex = _allTokensIndex[tokenId];\n\n        uint256 lastTokenId = _allTokens[lastTokenIndex];\n\n        _allTokens[tokenIndex] = lastTokenId; // Move the last token to the slot of the to-delete token\n        _allTokensIndex[lastTokenId] = tokenIndex; // Update the moved token's index\n\n        _allTokens.pop();\n        _allTokensIndex[tokenId] = 0;\n    }\n}\n\ncontract ERC721Metadata is ERC721Enumerable {//, usingOraclize {\n\n    string private _name;\n    string private _symbol;\n    string private _baseTokenURI; \n\n    mapping(uint256 => string) private _tokenURIs;\n\n    bytes4 private constant _INTERFACE_ID_ERC721_METADATA = 0x5b5e139f;\n    /*\n     * 0x5b5e139f ===\n     *     bytes4(keccak256('name()')) ^\n     *     bytes4(keccak256('symbol()')) ^\n     *     bytes4(keccak256('tokenURI(uint256)'))\n     */\n\n\n    constructor (string memory name, string memory symbol, string memory baseTokenURI) {\n        _name = name;\n        _symbol = symbol;\n        _baseTokenURI = baseTokenURI;\n\n        _registerInterface(_INTERFACE_ID_ERC721_METADATA);\n    }\n\n    function getName() external view returns(string memory) {\n        return _name;\n    }\n\n    function getSymbol() external view returns(string memory) {\n        return _symbol;\n    }\n\n    function getBaseTokenURI() external view returns(string memory) {\n        return _baseTokenURI;\n    }\n\n    function tokenURI(uint256 tokenId) external view returns (string memory) {\n        require(_exists(tokenId));\n        return _tokenURIs[tokenId];\n    }\n\n    function setTokenURI(uint256 tokenId) internal {\n        require(_exists(tokenId), \"ERROR: TOKEN ENTERED DOESN'T EXIST\");\n        _tokenURIs[tokenId] = Concat.strConcat(_baseTokenURI, Strings.toString(tokenId));\n    }\n\n}\n\n\ncontract REERC721Token is ERC721Metadata(\"REToken\", \"RST\", \"https://s3-us-west-2.amazonaws.com/udacity-blockchain/capstone/\") {\n\n    function mint(address to, uint256 tokenId) public onlyOwner returns (bool){\n        super._mint(to, tokenId);\n        setTokenURI(tokenId);\n        return true;\n    }\n}",
  "sourcePath": "/Users/fernandomaximof/Documents/udacity-projects/capstone/Blockchain-Capstone/eth-contracts/contracts/ERC721Mintable.sol",
  "compiler": {
    "name": "solc",
    "version": "0.8.11+commit.d7f03943.Emscripten.clang"
  },
  "schemaVersion": "3.4.3",
  "updatedAt": "2022-01-24T08:46:28.495Z",
  "devdoc": {
    "kind": "dev",
    "methods": {},
    "version": 1
  },
  "userdoc": {
    "kind": "user",
    "methods": {},
    "version": 1
  }
}