{
  "contractName": "SolnSquareVerifier",
  "abi": [
    {
      "inputs": [
        {
          "internalType": "address",
          "name": "contractAddress",
          "type": "address"
        }
      ],
      "stateMutability": "nonpayable",
      "type": "constructor"
    },
    {
      "anonymous": false,
      "inputs": [
        {
          "indexed": true,
          "internalType": "address",
          "name": "owner",
          "type": "address"
        },
        {
          "indexed": true,
          "internalType": "address",
          "name": "approved",
          "type": "address"
        },
        {
          "indexed": true,
          "internalType": "uint256",
          "name": "tokenId",
          "type": "uint256"
        }
      ],
      "name": "Approval",
      "type": "event"
    },
    {
      "anonymous": false,
      "inputs": [
        {
          "indexed": true,
          "internalType": "address",
          "name": "owner",
          "type": "address"
        },
        {
          "indexed": true,
          "internalType": "address",
          "name": "operator",
          "type": "address"
        },
        {
          "indexed": false,
          "internalType": "bool",
          "name": "approved",
          "type": "bool"
        }
      ],
      "name": "ApprovalForAll",
      "type": "event"
    },
    {
      "anonymous": false,
      "inputs": [
        {
          "indexed": false,
          "internalType": "address",
          "name": "",
          "type": "address"
        }
      ],
      "name": "OwnershipTransferred",
      "type": "event"
    },
    {
      "anonymous": false,
      "inputs": [
        {
          "indexed": false,
          "internalType": "address",
          "name": "",
          "type": "address"
        }
      ],
      "name": "Paused",
      "type": "event"
    },
    {
      "anonymous": false,
      "inputs": [
        {
          "indexed": false,
          "internalType": "address",
          "name": "addr",
          "type": "address"
        },
        {
          "indexed": false,
          "internalType": "uint256",
          "name": "index",
          "type": "uint256"
        }
      ],
      "name": "SolutionAdded",
      "type": "event"
    },
    {
      "anonymous": false,
      "inputs": [
        {
          "indexed": true,
          "internalType": "address",
          "name": "from",
          "type": "address"
        },
        {
          "indexed": true,
          "internalType": "address",
          "name": "to",
          "type": "address"
        },
        {
          "indexed": true,
          "internalType": "uint256",
          "name": "tokenId",
          "type": "uint256"
        }
      ],
      "name": "Transfer",
      "type": "event"
    },
    {
      "anonymous": false,
      "inputs": [
        {
          "indexed": false,
          "internalType": "address",
          "name": "",
          "type": "address"
        }
      ],
      "name": "Unpaused",
      "type": "event"
    },
    {
      "inputs": [
        {
          "internalType": "address",
          "name": "to",
          "type": "address"
        },
        {
          "internalType": "uint256",
          "name": "tokenId",
          "type": "uint256"
        }
      ],
      "name": "approve",
      "outputs": [],
      "stateMutability": "nonpayable",
      "type": "function"
    },
    {
      "inputs": [
        {
          "internalType": "address",
          "name": "owner",
          "type": "address"
        }
      ],
      "name": "balanceOf",
      "outputs": [
        {
          "internalType": "uint256",
          "name": "",
          "type": "uint256"
        }
      ],
      "stateMutability": "view",
      "type": "function",
      "constant": true
    },
    {
      "inputs": [],
      "name": "checkOwner",
      "outputs": [
        {
          "internalType": "address",
          "name": "",
          "type": "address"
        }
      ],
      "stateMutability": "view",
      "type": "function",
      "constant": true
    },
    {
      "inputs": [],
      "name": "checkStatus",
      "outputs": [
        {
          "internalType": "bool",
          "name": "",
          "type": "bool"
        }
      ],
      "stateMutability": "view",
      "type": "function",
      "constant": true
    },
    {
      "inputs": [
        {
          "internalType": "uint256",
          "name": "tokenId",
          "type": "uint256"
        }
      ],
      "name": "getApproved",
      "outputs": [
        {
          "internalType": "address",
          "name": "",
          "type": "address"
        }
      ],
      "stateMutability": "view",
      "type": "function",
      "constant": true
    },
    {
      "inputs": [],
      "name": "getBaseTokenURI",
      "outputs": [
        {
          "internalType": "string",
          "name": "",
          "type": "string"
        }
      ],
      "stateMutability": "view",
      "type": "function",
      "constant": true
    },
    {
      "inputs": [],
      "name": "getName",
      "outputs": [
        {
          "internalType": "string",
          "name": "",
          "type": "string"
        }
      ],
      "stateMutability": "view",
      "type": "function",
      "constant": true
    },
    {
      "inputs": [],
      "name": "getSymbol",
      "outputs": [
        {
          "internalType": "string",
          "name": "",
          "type": "string"
        }
      ],
      "stateMutability": "view",
      "type": "function",
      "constant": true
    },
    {
      "inputs": [
        {
          "internalType": "address",
          "name": "owner",
          "type": "address"
        },
        {
          "internalType": "address",
          "name": "operator",
          "type": "address"
        }
      ],
      "name": "isApprovedForAll",
      "outputs": [
        {
          "internalType": "bool",
          "name": "",
          "type": "bool"
        }
      ],
      "stateMutability": "view",
      "type": "function",
      "constant": true
    },
    {
      "inputs": [
        {
          "internalType": "address",
          "name": "to",
          "type": "address"
        },
        {
          "internalType": "uint256",
          "name": "tokenId",
          "type": "uint256"
        }
      ],
      "name": "mint",
      "outputs": [
        {
          "internalType": "bool",
          "name": "",
          "type": "bool"
        }
      ],
      "stateMutability": "nonpayable",
      "type": "function"
    },
    {
      "inputs": [
        {
          "internalType": "uint256",
          "name": "tokenId",
          "type": "uint256"
        }
      ],
      "name": "ownerOf",
      "outputs": [
        {
          "internalType": "address",
          "name": "",
          "type": "address"
        }
      ],
      "stateMutability": "view",
      "type": "function",
      "constant": true
    },
    {
      "inputs": [],
      "name": "pause",
      "outputs": [],
      "stateMutability": "nonpayable",
      "type": "function"
    },
    {
      "inputs": [
        {
          "internalType": "address",
          "name": "from",
          "type": "address"
        },
        {
          "internalType": "address",
          "name": "to",
          "type": "address"
        },
        {
          "internalType": "uint256",
          "name": "tokenId",
          "type": "uint256"
        }
      ],
      "name": "safeTransferFrom",
      "outputs": [],
      "stateMutability": "nonpayable",
      "type": "function"
    },
    {
      "inputs": [
        {
          "internalType": "address",
          "name": "from",
          "type": "address"
        },
        {
          "internalType": "address",
          "name": "to",
          "type": "address"
        },
        {
          "internalType": "uint256",
          "name": "tokenId",
          "type": "uint256"
        },
        {
          "internalType": "bytes",
          "name": "_data",
          "type": "bytes"
        }
      ],
      "name": "safeTransferFrom",
      "outputs": [],
      "stateMutability": "nonpayable",
      "type": "function"
    },
    {
      "inputs": [
        {
          "internalType": "address",
          "name": "to",
          "type": "address"
        },
        {
          "internalType": "bool",
          "name": "approved",
          "type": "bool"
        }
      ],
      "name": "setApprovalForAll",
      "outputs": [],
      "stateMutability": "nonpayable",
      "type": "function"
    },
    {
      "inputs": [
        {
          "internalType": "bytes4",
          "name": "interfaceId",
          "type": "bytes4"
        }
      ],
      "name": "supportsInterface",
      "outputs": [
        {
          "internalType": "bool",
          "name": "",
          "type": "bool"
        }
      ],
      "stateMutability": "view",
      "type": "function",
      "constant": true
    },
    {
      "inputs": [
        {
          "internalType": "uint256",
          "name": "index",
          "type": "uint256"
        }
      ],
      "name": "tokenByIndex",
      "outputs": [
        {
          "internalType": "uint256",
          "name": "",
          "type": "uint256"
        }
      ],
      "stateMutability": "view",
      "type": "function",
      "constant": true
    },
    {
      "inputs": [
        {
          "internalType": "address",
          "name": "owner",
          "type": "address"
        },
        {
          "internalType": "uint256",
          "name": "index",
          "type": "uint256"
        }
      ],
      "name": "tokenOfOwnerByIndex",
      "outputs": [
        {
          "internalType": "uint256",
          "name": "",
          "type": "uint256"
        }
      ],
      "stateMutability": "view",
      "type": "function",
      "constant": true
    },
    {
      "inputs": [
        {
          "internalType": "uint256",
          "name": "tokenId",
          "type": "uint256"
        }
      ],
      "name": "tokenURI",
      "outputs": [
        {
          "internalType": "string",
          "name": "",
          "type": "string"
        }
      ],
      "stateMutability": "view",
      "type": "function",
      "constant": true
    },
    {
      "inputs": [],
      "name": "totalSupply",
      "outputs": [
        {
          "internalType": "uint256",
          "name": "",
          "type": "uint256"
        }
      ],
      "stateMutability": "view",
      "type": "function",
      "constant": true
    },
    {
      "inputs": [
        {
          "internalType": "address",
          "name": "from",
          "type": "address"
        },
        {
          "internalType": "address",
          "name": "to",
          "type": "address"
        },
        {
          "internalType": "uint256",
          "name": "tokenId",
          "type": "uint256"
        }
      ],
      "name": "transferFrom",
      "outputs": [],
      "stateMutability": "nonpayable",
      "type": "function"
    },
    {
      "inputs": [
        {
          "internalType": "address",
          "name": "newOwner",
          "type": "address"
        }
      ],
      "name": "transferOwnership",
      "outputs": [],
      "stateMutability": "nonpayable",
      "type": "function"
    },
    {
      "inputs": [],
      "name": "unpause",
      "outputs": [],
      "stateMutability": "nonpayable",
      "type": "function"
    },
    {
      "inputs": [
        {
          "internalType": "address",
          "name": "_addr",
          "type": "address"
        },
        {
          "internalType": "uint256",
          "name": "tokenId",
          "type": "uint256"
        }
      ],
      "name": "addSolution",
      "outputs": [],
      "stateMutability": "nonpayable",
      "type": "function"
    },
    {
      "inputs": [
        {
          "internalType": "uint256",
          "name": "tokenId",
          "type": "uint256"
        },
        {
          "components": [
            {
              "components": [
                {
                  "internalType": "uint256",
                  "name": "X",
                  "type": "uint256"
                },
                {
                  "internalType": "uint256",
                  "name": "Y",
                  "type": "uint256"
                }
              ],
              "internalType": "struct Pairing.G1Point",
              "name": "a",
              "type": "tuple"
            },
            {
              "components": [
                {
                  "internalType": "uint256[2]",
                  "name": "X",
                  "type": "uint256[2]"
                },
                {
                  "internalType": "uint256[2]",
                  "name": "Y",
                  "type": "uint256[2]"
                }
              ],
              "internalType": "struct Pairing.G2Point",
              "name": "b",
              "type": "tuple"
            },
            {
              "components": [
                {
                  "internalType": "uint256",
                  "name": "X",
                  "type": "uint256"
                },
                {
                  "internalType": "uint256",
                  "name": "Y",
                  "type": "uint256"
                }
              ],
              "internalType": "struct Pairing.G1Point",
              "name": "c",
              "type": "tuple"
            }
          ],
          "internalType": "struct IZokratesVerifier.Proof",
          "name": "proof",
          "type": "tuple"
        },
        {
          "internalType": "uint256[2]",
          "name": "input",
          "type": "uint256[2]"
        }
      ],
      "name": "mintNFT",
      "outputs": [],
      "stateMutability": "nonpayable",
      "type": "function"
    }
  ],
  "bytecode": "0x60806040523480156200001157600080fd5b506040516200404838038062004048833981810160405281019062000037919062000459565b6040518060400160405280600781526020017f5245546f6b656e000000000000000000000000000000000000000000000000008152506040518060400160405280600381526020017f52535400000000000000000000000000000000000000000000000000000000008152506040518060600160405280603f815260200162004009603f9139336000806101000a81548173ffffffffffffffffffffffffffffffffffffffff021916908373ffffffffffffffffffffffffffffffffffffffff1602179055507f04dba622d284ed0014ee4b9a6a68386be1a4c08a4913ae272de89199cc68616360008054906101000a900473ffffffffffffffffffffffffffffffffffffffff166040516200014e91906200049c565b60405180910390a160008060146101000a81548160ff0219169083151502179055507f62e78cea01bee320cd4e420270b5ea74000d11b0c9f74754ebdbfc544b05a25833604051620001a191906200049c565b60405180910390a1620001c16301ffc9a760e01b6200029f60201b60201c565b620001d96380ac58cd60e01b6200029f60201b60201c565b620001f163780e9d6360e01b6200029f60201b60201c565b82600a9080519060200190620002099291906200033f565b5081600b9080519060200190620002229291906200033f565b5080600c90805190602001906200023b9291906200033f565b5062000254635b5e139f60e01b6200029f60201b60201c565b50505080601060006101000a81548173ffffffffffffffffffffffffffffffffffffffff021916908373ffffffffffffffffffffffffffffffffffffffff160217905550506200051e565b63ffffffff60e01b817bffffffffffffffffffffffffffffffffffffffffffffffffffffffff19161415620002d357600080fd5b6001806000837bffffffffffffffffffffffffffffffffffffffffffffffffffffffff19167bffffffffffffffffffffffffffffffffffffffffffffffffffffffff1916815260200190815260200160002060006101000a81548160ff02191690831515021790555050565b8280546200034d90620004e8565b90600052602060002090601f016020900481019282620003715760008555620003bd565b82601f106200038c57805160ff1916838001178555620003bd565b82800160010185558215620003bd579182015b82811115620003bc5782518255916020019190600101906200039f565b5b509050620003cc9190620003d0565b5090565b5b80821115620003eb576000816000905550600101620003d1565b5090565b600080fd5b600073ffffffffffffffffffffffffffffffffffffffff82169050919050565b60006200042182620003f4565b9050919050565b620004338162000414565b81146200043f57600080fd5b50565b600081519050620004538162000428565b92915050565b600060208284031215620004725762000471620003ef565b5b6000620004828482850162000442565b91505092915050565b620004968162000414565b82525050565b6000602082019050620004b360008301846200048b565b92915050565b7f4e487b7100000000000000000000000000000000000000000000000000000000600052602260045260246000fd5b600060028204905060018216806200050157607f821691505b60208210811415620005185762000517620004b9565b5b50919050565b613adb806200052e6000396000f3fe608060405234801561001057600080fd5b50600436106101735760003560e01c806340c10f19116100de578063a22cb46511610097578063c87b56dd11610071578063c87b56dd14610436578063cdbce03d14610466578063e985e9c514610484578063f2fde38b146104b457610173565b8063a22cb465146103e0578063b88d4fde146103fc578063bdc32be01461041857610173565b806340c10f19146102fa57806342842e0e1461032a5780634f6ccce7146103465780636352211e1461037657806370a08231146103a65780638456cb59146103d657610173565b806323b872dd1161013057806323b872dd1461024e57806324ba2bde1461026a5780632f745c59146102865780633645a170146102b65780633b7104f2146102d25780633f4ba83a146102f057610173565b806301ffc9a714610178578063081812fc146101a8578063095ea7b3146101d857806315070401146101f457806317d7de7c1461021257806318160ddd14610230575b600080fd5b610192600480360381019061018d9190612760565b6104d0565b60405161019f91906127a8565b60405180910390f35b6101c260048036038101906101bd91906127f9565b610538565b6040516101cf9190612867565b60405180910390f35b6101f260048036038101906101ed91906128ae565b6105bd565b005b6101fc61077c565b6040516102099190612987565b60405180910390f35b61021a61080e565b6040516102279190612987565b60405180910390f35b6102386108a0565b60405161024591906129b8565b60405180910390f35b610268600480360381019061026391906129d3565b6108ad565b005b610284600480360381019061027f9190612c66565b6108d0565b005b6102a0600480360381019061029b91906128ae565b610a6b565b6040516102ad91906129b8565b60405180910390f35b6102d060048036038101906102cb91906128ae565b610ae5565b005b6102da610c5d565b6040516102e791906127a8565b60405180910390f35b6102f8610c73565b005b610314600480360381019061030f91906128ae565b610dab565b60405161032191906127a8565b60405180910390f35b610344600480360381019061033f91906129d3565b610e58565b005b610360600480360381019061035b91906127f9565b610e78565b60405161036d91906129b8565b60405180910390f35b610390600480360381019061038b91906127f9565b610eb3565b60405161039d9190612867565b60405180910390f35b6103c060048036038101906103bb9190612cbb565b610ef0565b6040516103cd91906129b8565b60405180910390f35b6103de610f40565b005b6103fa60048036038101906103f59190612d14565b611070565b005b61041660048036038101906104119190612e09565b6111a6565b005b6104206111cc565b60405161042d9190612987565b60405180910390f35b610450600480360381019061044b91906127f9565b61125e565b60405161045d9190612987565b60405180910390f35b61046e611315565b60405161047b9190612867565b60405180910390f35b61049e60048036038101906104999190612e8c565b61133e565b6040516104ab91906127a8565b60405180910390f35b6104ce60048036038101906104c99190612cbb565b6113d2565b005b600060016000837bffffffffffffffffffffffffffffffffffffffffffffffffffffffff19167bffffffffffffffffffffffffffffffffffffffffffffffffffffffff1916815260200190815260200160002060009054906101000a900460ff169050919050565b60006105438261156a565b610582576040517f08c379a000000000000000000000000000000000000000000000000000000000815260040161057990612f3e565b60405180910390fd5b6003600083815260200190815260200160002060009054906101000a900473ffffffffffffffffffffffffffffffffffffffff169050919050565b6105c681610eb3565b73ffffffffffffffffffffffffffffffffffffffff168273ffffffffffffffffffffffffffffffffffffffff161415610634576040517f08c379a000000000000000000000000000000000000000000000000000000000815260040161062b90612fd0565b60405180910390fd5b3373ffffffffffffffffffffffffffffffffffffffff1661065482610eb3565b73ffffffffffffffffffffffffffffffffffffffff161480610684575061068361067d82610eb3565b3361133e565b5b6106c3576040517f08c379a00000000000000000000000000000000000000000000000000000000081526004016106ba9061303c565b60405180910390fd5b816003600083815260200190815260200160002060006101000a81548173ffffffffffffffffffffffffffffffffffffffff021916908373ffffffffffffffffffffffffffffffffffffffff160217905550808273ffffffffffffffffffffffffffffffffffffffff1661073683610eb3565b73ffffffffffffffffffffffffffffffffffffffff167f8c5be1e5ebec7d5bd14f71427d1e84f3dd0314c0f7b2291e5b200ac8c7c3b92560405160405180910390a45050565b6060600b805461078b9061308b565b80601f01602080910402602001604051908101604052809291908181526020018280546107b79061308b565b80156108045780601f106107d957610100808354040283529160200191610804565b820191906000526020600020905b8154815290600101906020018083116107e757829003601f168201915b5050505050905090565b6060600a805461081d9061308b565b80601f01602080910402602001604051908101604052809291908181526020018280546108499061308b565b80156108965780601f1061086b57610100808354040283529160200191610896565b820191906000526020600020905b81548152906001019060200180831161087957829003601f168201915b5050505050905090565b6000600880549050905090565b6108b733826115dc565b6108c057600080fd5b6108cb838383611671565b505050565b600073ffffffffffffffffffffffffffffffffffffffff16600f600085815260200190815260200160002060000160009054906101000a900473ffffffffffffffffffffffffffffffffffffffff1673ffffffffffffffffffffffffffffffffffffffff1614610975576040517f08c379a000000000000000000000000000000000000000000000000000000000815260040161096c90613109565b60405180910390fd5b601060009054906101000a900473ffffffffffffffffffffffffffffffffffffffff1673ffffffffffffffffffffffffffffffffffffffff166343cd76fc83836040518363ffffffff1660e01b81526004016109d29291906132d7565b602060405180830381865afa1580156109ef573d6000803e3d6000fd5b505050506040513d601f19601f82011682018060405250810190610a139190613317565b610a52576040517f08c379a0000000000000000000000000000000000000000000000000000000008152600401610a49906133b6565b60405180910390fd5b610a5c3384610ae5565b610a663384611695565b505050565b6000610a7683610ef0565b8210610a8157600080fd5b600660008473ffffffffffffffffffffffffffffffffffffffff1673ffffffffffffffffffffffffffffffffffffffff1681526020019081526020016000208281548110610ad257610ad16133d6565b5b9060005260206000200154905092915050565b600e60405180604001604052808473ffffffffffffffffffffffffffffffffffffffff16815260200183815250908060018154018082558091505060019003906000526020600020906002020160009091909190915060008201518160000160006101000a81548173ffffffffffffffffffffffffffffffffffffffff021916908373ffffffffffffffffffffffffffffffffffffffff16021790555060208201518160010155505060405180604001604052808373ffffffffffffffffffffffffffffffffffffffff16815260200182815250600f600083815260200190815260200160002060008201518160000160006101000a81548173ffffffffffffffffffffffffffffffffffffffff021916908373ffffffffffffffffffffffffffffffffffffffff160217905550602082015181600101559050507f3a01cc868bdb36c1d9b8a262a8ad25064b23ac175b3f8e4453f1daf8ff6bac0d8282604051610c51929190613405565b60405180910390a15050565b60008060149054906101000a900460ff16905090565b60001515600060149054906101000a900460ff16151514610cc9576040517f08c379a0000000000000000000000000000000000000000000000000000000008152600401610cc09061347a565b60405180910390fd5b3373ffffffffffffffffffffffffffffffffffffffff1660008054906101000a900473ffffffffffffffffffffffffffffffffffffffff1673ffffffffffffffffffffffffffffffffffffffff1614610d57576040517f08c379a0000000000000000000000000000000000000000000000000000000008152600401610d4e906134e6565b60405180910390fd5b6001600060146101000a81548160ff0219169083151502179055507f5db9ee0a495bf2e6ff9c91a7834c1ba4fdd244a5e8aa4e537bd38aeae4b073aa33604051610da19190612867565b60405180910390a1565b60003373ffffffffffffffffffffffffffffffffffffffff1660008054906101000a900473ffffffffffffffffffffffffffffffffffffffff1673ffffffffffffffffffffffffffffffffffffffff1614610e3b576040517f08c379a0000000000000000000000000000000000000000000000000000000008152600401610e32906134e6565b60405180910390fd5b610e458383611695565b610e4e826116b6565b6001905092915050565b610e73838383604051806020016040528060008152506111a6565b505050565b6000610e826108a0565b8210610e8d57600080fd5b60088281548110610ea157610ea06133d6565b5b90600052602060002001549050919050565b60006002600083815260200190815260200160002060009054906101000a900473ffffffffffffffffffffffffffffffffffffffff169050919050565b6000610f39600460008473ffffffffffffffffffffffffffffffffffffffff1673ffffffffffffffffffffffffffffffffffffffff1681526020019081526020016000206117c4565b9050919050565b600060149054906101000a900460ff16610f8f576040517f08c379a0000000000000000000000000000000000000000000000000000000008152600401610f8690613552565b60405180910390fd5b3373ffffffffffffffffffffffffffffffffffffffff1660008054906101000a900473ffffffffffffffffffffffffffffffffffffffff1673ffffffffffffffffffffffffffffffffffffffff161461101d576040517f08c379a0000000000000000000000000000000000000000000000000000000008152600401611014906134e6565b60405180910390fd5b60008060146101000a81548160ff0219169083151502179055507f62e78cea01bee320cd4e420270b5ea74000d11b0c9f74754ebdbfc544b05a258336040516110669190612867565b60405180910390a1565b3373ffffffffffffffffffffffffffffffffffffffff168273ffffffffffffffffffffffffffffffffffffffff1614156110a957600080fd5b80600560003373ffffffffffffffffffffffffffffffffffffffff1673ffffffffffffffffffffffffffffffffffffffff16815260200190815260200160002060008473ffffffffffffffffffffffffffffffffffffffff1673ffffffffffffffffffffffffffffffffffffffff16815260200190815260200160002060006101000a81548160ff0219169083151502179055508173ffffffffffffffffffffffffffffffffffffffff163373ffffffffffffffffffffffffffffffffffffffff167f17307eab39ab6107e8899845ad3d59bd9653f200f220920489ca2b5937696c318360405161119a91906127a8565b60405180910390a35050565b6111b18484846108ad565b6111bd848484846117d2565b6111c657600080fd5b50505050565b6060600c80546111db9061308b565b80601f01602080910402602001604051908101604052809291908181526020018280546112079061308b565b80156112545780601f1061122957610100808354040283529160200191611254565b820191906000526020600020905b81548152906001019060200180831161123757829003601f168201915b5050505050905090565b60606112698261156a565b61127257600080fd5b600d600083815260200190815260200160002080546112909061308b565b80601f01602080910402602001604051908101604052809291908181526020018280546112bc9061308b565b80156113095780601f106112de57610100808354040283529160200191611309565b820191906000526020600020905b8154815290600101906020018083116112ec57829003601f168201915b50505050509050919050565b60008060009054906101000a900473ffffffffffffffffffffffffffffffffffffffff16905090565b6000600560008473ffffffffffffffffffffffffffffffffffffffff1673ffffffffffffffffffffffffffffffffffffffff16815260200190815260200160002060008373ffffffffffffffffffffffffffffffffffffffff1673ffffffffffffffffffffffffffffffffffffffff16815260200190815260200160002060009054906101000a900460ff16905092915050565b3373ffffffffffffffffffffffffffffffffffffffff1660008054906101000a900473ffffffffffffffffffffffffffffffffffffffff1673ffffffffffffffffffffffffffffffffffffffff1614611460576040517f08c379a0000000000000000000000000000000000000000000000000000000008152600401611457906134e6565b60405180910390fd5b600073ffffffffffffffffffffffffffffffffffffffff168173ffffffffffffffffffffffffffffffffffffffff1614156114d0576040517f08c379a00000000000000000000000000000000000000000000000000000000081526004016114c7906135e4565b60405180910390fd5b806000806101000a81548173ffffffffffffffffffffffffffffffffffffffff021916908373ffffffffffffffffffffffffffffffffffffffff1602179055507f04dba622d284ed0014ee4b9a6a68386be1a4c08a4913ae272de89199cc68616360008054906101000a900473ffffffffffffffffffffffffffffffffffffffff1660405161155f9190612867565b60405180910390a150565b6000806002600084815260200190815260200160002060009054906101000a900473ffffffffffffffffffffffffffffffffffffffff169050600073ffffffffffffffffffffffffffffffffffffffff168173ffffffffffffffffffffffffffffffffffffffff161415915050919050565b6000806115e883610eb3565b90508073ffffffffffffffffffffffffffffffffffffffff168473ffffffffffffffffffffffffffffffffffffffff16148061165757508373ffffffffffffffffffffffffffffffffffffffff1661163f84610538565b73ffffffffffffffffffffffffffffffffffffffff16145b806116685750611667818561133e565b5b91505092915050565b61167c8383836118da565b6116868382611b51565b6116908282611d08565b505050565b61169f8282611dcc565b6116a98282611d08565b6116b281611fa5565b5050565b6116bf8161156a565b6116fe576040517f08c379a00000000000000000000000000000000000000000000000000000000081526004016116f590612f3e565b60405180910390fd5b61179a600c805461170e9061308b565b80601f016020809104026020016040519081016040528092919081815260200182805461173a9061308b565b80156117875780601f1061175c57610100808354040283529160200191611787565b820191906000526020600020905b81548152906001019060200180831161176a57829003601f168201915b505050505061179583611fee565b61214f565b600d600083815260200190815260200160002090805190602001906117c0929190612651565b5050565b600081600001549050919050565b60006117f38473ffffffffffffffffffffffffffffffffffffffff16612193565b61180057600190506118d2565b60008473ffffffffffffffffffffffffffffffffffffffff1663150b7a02338887876040518563ffffffff1660e01b81526004016118419493929190613659565b6020604051808303816000875af1158015611860573d6000803e3d6000fd5b505050506040513d601f19601f8201168201806040525081019061188491906136ba565b905063150b7a0260e01b7bffffffffffffffffffffffffffffffffffffffffffffffffffffffff1916817bffffffffffffffffffffffffffffffffffffffffffffffffffffffff1916149150505b949350505050565b6118e38161156a565b611922576040517f08c379a000000000000000000000000000000000000000000000000000000000815260040161191990612f3e565b60405180910390fd5b8273ffffffffffffffffffffffffffffffffffffffff1661194282610eb3565b73ffffffffffffffffffffffffffffffffffffffff1614611998576040517f08c379a000000000000000000000000000000000000000000000000000000000815260040161198f90613759565b60405180910390fd5b600073ffffffffffffffffffffffffffffffffffffffff168273ffffffffffffffffffffffffffffffffffffffff161415611a08576040517f08c379a00000000000000000000000000000000000000000000000000000000081526004016119ff906137c5565b60405180910390fd5b611a11816121a6565b611a58600460008573ffffffffffffffffffffffffffffffffffffffff1673ffffffffffffffffffffffffffffffffffffffff168152602001908152602001600020612264565b611a9f600460008473ffffffffffffffffffffffffffffffffffffffff1673ffffffffffffffffffffffffffffffffffffffff1681526020019081526020016000206122c0565b816002600083815260200190815260200160002060006101000a81548173ffffffffffffffffffffffffffffffffffffffff021916908373ffffffffffffffffffffffffffffffffffffffff160217905550808273ffffffffffffffffffffffffffffffffffffffff168473ffffffffffffffffffffffffffffffffffffffff167fddf252ad1be2c89b69c2b068fc378daa952ba7f163c4a11628f55a4df523b3ef60405160405180910390a4505050565b60006001600660008573ffffffffffffffffffffffffffffffffffffffff1673ffffffffffffffffffffffffffffffffffffffff16815260200190815260200160002080549050611ba29190613814565b9050600060076000848152602001908152602001600020549050818114611c9d576000600660008673ffffffffffffffffffffffffffffffffffffffff1673ffffffffffffffffffffffffffffffffffffffff1681526020019081526020016000208381548110611c1657611c156133d6565b5b9060005260206000200154905080600660008773ffffffffffffffffffffffffffffffffffffffff1673ffffffffffffffffffffffffffffffffffffffff1681526020019081526020016000208381548110611c7557611c746133d6565b5b9060005260206000200181905550816007600083815260200190815260200160002081905550505b600660008573ffffffffffffffffffffffffffffffffffffffff1673ffffffffffffffffffffffffffffffffffffffff168152602001908152602001600020805480611cec57611ceb613848565b5b6001900381819060005260206000200160009055905550505050565b600660008373ffffffffffffffffffffffffffffffffffffffff1673ffffffffffffffffffffffffffffffffffffffff168152602001908152602001600020805490506007600083815260200190815260200160002081905550600660008373ffffffffffffffffffffffffffffffffffffffff1673ffffffffffffffffffffffffffffffffffffffff1681526020019081526020016000208190806001815401808255809150506001900390600052602060002001600090919091909150555050565b611dd58161156a565b15611e15576040517f08c379a0000000000000000000000000000000000000000000000000000000008152600401611e0c906138e9565b60405180910390fd5b600073ffffffffffffffffffffffffffffffffffffffff168273ffffffffffffffffffffffffffffffffffffffff1614158015611e6e5750611e6c8273ffffffffffffffffffffffffffffffffffffffff16612193565b155b611ead576040517f08c379a0000000000000000000000000000000000000000000000000000000008152600401611ea4906135e4565b60405180910390fd5b816002600083815260200190815260200160002060006101000a81548173ffffffffffffffffffffffffffffffffffffffff021916908373ffffffffffffffffffffffffffffffffffffffff160217905550611f46600460008473ffffffffffffffffffffffffffffffffffffffff1673ffffffffffffffffffffffffffffffffffffffff1681526020019081526020016000206122c0565b808273ffffffffffffffffffffffffffffffffffffffff163373ffffffffffffffffffffffffffffffffffffffff167fddf252ad1be2c89b69c2b068fc378daa952ba7f163c4a11628f55a4df523b3ef60405160405180910390a45050565b6008805490506009600083815260200190815260200160002081905550600881908060018154018082558091505060019003906000526020600020016000909190919091505550565b60606000821415612036576040518060400160405280600181526020017f3000000000000000000000000000000000000000000000000000000000000000815250905061214a565b600082905060005b6000821461206857808061205190613909565b915050600a826120619190613981565b915061203e565b60008167ffffffffffffffff81111561208457612083612a2b565b5b6040519080825280601f01601f1916602001820160405280156120b65781602001600182028036833780820191505090505b5090505b60008514612143576001826120cf9190613814565b9150600a856120de91906139b2565b60306120ea91906139e3565b60f81b818381518110612100576120ff6133d6565b5b60200101907effffffffffffffffffffffffffffffffffffffffffffffffffffffffffffff1916908160001a905350600a8561213c9190613981565b94506120ba565b8093505050505b919050565b606061218b83836040518060200160405280600081525060405180602001604052806000815250604051806020016040528060008152506122d6565b905092915050565b600080823b905060008111915050919050565b600073ffffffffffffffffffffffffffffffffffffffff166003600083815260200190815260200160002060009054906101000a900473ffffffffffffffffffffffffffffffffffffffff1673ffffffffffffffffffffffffffffffffffffffff16146122615760006003600083815260200190815260200160002060006101000a81548173ffffffffffffffffffffffffffffffffffffffff021916908373ffffffffffffffffffffffffffffffffffffffff1602179055505b50565b600081600001549050600081116122b0576040517f08c379a00000000000000000000000000000000000000000000000000000000081526004016122a790613a85565b60405180910390fd5b6001810382600001819055505050565b6001816000016000828254019250508190555050565b60606000869050600086905060008690506000869050600086905060008151835185518751895161230791906139e3565b61231191906139e3565b61231b91906139e3565b61232591906139e3565b67ffffffffffffffff81111561233e5761233d612a2b565b5b6040519080825280601f01601f1916602001820160405280156123705781602001600182028036833780820191505090505b5090506000819050600080600090505b88518110156124085788818151811061239c5761239b6133d6565b5b602001015160f81c60f81b8383806123b390613909565b9450815181106123c6576123c56133d6565b5b60200101907effffffffffffffffffffffffffffffffffffffffffffffffffffffffffffff1916908160001a905350808061240090613909565b915050612380565b600090505b875181101561249557878181518110612429576124286133d6565b5b602001015160f81c60f81b83838061244090613909565b945081518110612453576124526133d6565b5b60200101907effffffffffffffffffffffffffffffffffffffffffffffffffffffffffffff1916908160001a905350808061248d90613909565b91505061240d565b600090505b8651811015612522578681815181106124b6576124b56133d6565b5b602001015160f81c60f81b8383806124cd90613909565b9450815181106124e0576124df6133d6565b5b60200101907effffffffffffffffffffffffffffffffffffffffffffffffffffffffffffff1916908160001a905350808061251a90613909565b91505061249a565b600090505b85518110156125af57858181518110612543576125426133d6565b5b602001015160f81c60f81b83838061255a90613909565b94508151811061256d5761256c6133d6565b5b60200101907effffffffffffffffffffffffffffffffffffffffffffffffffffffffffffff1916908160001a90535080806125a790613909565b915050612527565b600090505b845181101561263c578481815181106125d0576125cf6133d6565b5b602001015160f81c60f81b8383806125e790613909565b9450815181106125fa576125f96133d6565b5b60200101907effffffffffffffffffffffffffffffffffffffffffffffffffffffffffffff1916908160001a905350808061263490613909565b9150506125b4565b82995050505050505050505095945050505050565b82805461265d9061308b565b90600052602060002090601f01602090048101928261267f57600085556126c6565b82601f1061269857805160ff19168380011785556126c6565b828001600101855582156126c6579182015b828111156126c55782518255916020019190600101906126aa565b5b5090506126d391906126d7565b5090565b5b808211156126f05760008160009055506001016126d8565b5090565b6000604051905090565b600080fd5b600080fd5b60007fffffffff0000000000000000000000000000000000000000000000000000000082169050919050565b61273d81612708565b811461274857600080fd5b50565b60008135905061275a81612734565b92915050565b600060208284031215612776576127756126fe565b5b60006127848482850161274b565b91505092915050565b60008115159050919050565b6127a28161278d565b82525050565b60006020820190506127bd6000830184612799565b92915050565b6000819050919050565b6127d6816127c3565b81146127e157600080fd5b50565b6000813590506127f3816127cd565b92915050565b60006020828403121561280f5761280e6126fe565b5b600061281d848285016127e4565b91505092915050565b600073ffffffffffffffffffffffffffffffffffffffff82169050919050565b600061285182612826565b9050919050565b61286181612846565b82525050565b600060208201905061287c6000830184612858565b92915050565b61288b81612846565b811461289657600080fd5b50565b6000813590506128a881612882565b92915050565b600080604083850312156128c5576128c46126fe565b5b60006128d385828601612899565b92505060206128e4858286016127e4565b9150509250929050565b600081519050919050565b600082825260208201905092915050565b60005b8381101561292857808201518184015260208101905061290d565b83811115612937576000848401525b50505050565b6000601f19601f8301169050919050565b6000612959826128ee565b61296381856128f9565b935061297381856020860161290a565b61297c8161293d565b840191505092915050565b600060208201905081810360008301526129a1818461294e565b905092915050565b6129b2816127c3565b82525050565b60006020820190506129cd60008301846129a9565b92915050565b6000806000606084860312156129ec576129eb6126fe565b5b60006129fa86828701612899565b9350506020612a0b86828701612899565b9250506040612a1c868287016127e4565b9150509250925092565b600080fd5b7f4e487b7100000000000000000000000000000000000000000000000000000000600052604160045260246000fd5b612a638261293d565b810181811067ffffffffffffffff82111715612a8257612a81612a2b565b5b80604052505050565b6000612a956126f4565b9050612aa18282612a5a565b919050565b600060408284031215612abc57612abb612a26565b5b612ac66040612a8b565b90506000612ad6848285016127e4565b6000830152506020612aea848285016127e4565b60208301525092915050565b600080fd5b600067ffffffffffffffff821115612b1657612b15612a2b565b5b602082029050919050565b600080fd5b6000612b39612b3484612afb565b612a8b565b90508060208402830185811115612b5357612b52612b21565b5b835b81811015612b7c5780612b6888826127e4565b845260208401935050602081019050612b55565b5050509392505050565b600082601f830112612b9b57612b9a612af6565b5b6002612ba8848285612b26565b91505092915050565b600060808284031215612bc757612bc6612a26565b5b612bd16040612a8b565b90506000612be184828501612b86565b6000830152506040612bf584828501612b86565b60208301525092915050565b60006101008284031215612c1857612c17612a26565b5b612c226060612a8b565b90506000612c3284828501612aa6565b6000830152506040612c4684828501612bb1565b60208301525060c0612c5a84828501612aa6565b60408301525092915050565b60008060006101608486031215612c8057612c7f6126fe565b5b6000612c8e868287016127e4565b9350506020612c9f86828701612c01565b925050610120612cb186828701612b86565b9150509250925092565b600060208284031215612cd157612cd06126fe565b5b6000612cdf84828501612899565b91505092915050565b612cf18161278d565b8114612cfc57600080fd5b50565b600081359050612d0e81612ce8565b92915050565b60008060408385031215612d2b57612d2a6126fe565b5b6000612d3985828601612899565b9250506020612d4a85828601612cff565b9150509250929050565b600080fd5b600067ffffffffffffffff821115612d7457612d73612a2b565b5b612d7d8261293d565b9050602081019050919050565b82818337600083830152505050565b6000612dac612da784612d59565b612a8b565b905082815260208101848484011115612dc857612dc7612d54565b5b612dd3848285612d8a565b509392505050565b600082601f830112612df057612def612af6565b5b8135612e00848260208601612d99565b91505092915050565b60008060008060808587031215612e2357612e226126fe565b5b6000612e3187828801612899565b9450506020612e4287828801612899565b9350506040612e53878288016127e4565b925050606085013567ffffffffffffffff811115612e7457612e73612703565b5b612e8087828801612ddb565b91505092959194509250565b60008060408385031215612ea357612ea26126fe565b5b6000612eb185828601612899565b9250506020612ec285828601612899565b9150509250929050565b7f4552524f523a20544f4b454e20454e544552454420444f45534e27542045584960008201527f5354000000000000000000000000000000000000000000000000000000000000602082015250565b6000612f286022836128f9565b9150612f3382612ecc565b604082019050919050565b60006020820190508181036000830152612f5781612f1b565b9050919050565b7f4552524f523a204144445245535320414c524541445920544845204f574e455260008201527f204f462054484520544f4b454e00000000000000000000000000000000000000602082015250565b6000612fba602d836128f9565b9150612fc582612f5e565b604082019050919050565b60006020820190508181036000830152612fe981612fad565b9050919050565b7f4552524f523a2043414c4c4552204953204e4f5420544f4b454e204f574e4552600082015250565b60006130266020836128f9565b915061303182612ff0565b602082019050919050565b6000602082019050818103600083015261305581613019565b9050919050565b7f4e487b7100000000000000000000000000000000000000000000000000000000600052602260045260246000fd5b600060028204905060018216806130a357607f821691505b602082108114156130b7576130b661305c565b5b50919050565b7f4552524f523a20534f4c5554494f4e204953204e4f5420554e49515545000000600082015250565b60006130f3601d836128f9565b91506130fe826130bd565b602082019050919050565b60006020820190508181036000830152613122816130e6565b9050919050565b613132816127c3565b82525050565b60408201600082015161314e6000850182613129565b5060208201516131616020850182613129565b50505050565b600060029050919050565b600081905092915050565b6000819050919050565b60006131938383613129565b60208301905092915050565b6000602082019050919050565b6131b581613167565b6131bf8184613172565b92506131ca8261317d565b8060005b838110156131fb5781516131e28782613187565b96506131ed8361319f565b9250506001810190506131ce565b505050505050565b60808201600082015161321960008501826131ac565b50602082015161322c60408501826131ac565b50505050565b610100820160008201516132496000850182613138565b50602082015161325c6040850182613203565b50604082015161326f60c0850182613138565b50505050565b600081905092915050565b61328981613167565b6132938184613275565b925061329e8261317d565b8060005b838110156132cf5781516132b68782613187565b96506132c18361319f565b9250506001810190506132a2565b505050505050565b6000610140820190506132ed6000830185613232565b6132fb610100830184613280565b9392505050565b60008151905061331181612ce8565b92915050565b60006020828403121561332d5761332c6126fe565b5b600061333b84828501613302565b91505092915050565b7f4552524f523a20564552494649434154494f4e204641494c45442e2043414e2760008201527f54204d494e5420544f4b454e0000000000000000000000000000000000000000602082015250565b60006133a0602c836128f9565b91506133ab82613344565b604082019050919050565b600060208201905081810360008301526133cf81613393565b9050919050565b7f4e487b7100000000000000000000000000000000000000000000000000000000600052603260045260246000fd5b600060408201905061341a6000830185612858565b61342760208301846129a9565b9392505050565b7f434f4e5452414354204953204e4f542050415553454400000000000000000000600082015250565b60006134646016836128f9565b915061346f8261342e565b602082019050919050565b6000602082019050818103600083015261349381613457565b9050919050565b7f4e4f54204f574e45520000000000000000000000000000000000000000000000600082015250565b60006134d06009836128f9565b91506134db8261349a565b602082019050919050565b600060208201905081810360008301526134ff816134c3565b9050919050565b7f434f4e5452414354204953205041555345440000000000000000000000000000600082015250565b600061353c6012836128f9565b915061354782613506565b602082019050919050565b6000602082019050818103600083015261356b8161352f565b9050919050565b7f4552524f523a204144445245535320454e5445524544204953204e4f5420564160008201527f4c49440000000000000000000000000000000000000000000000000000000000602082015250565b60006135ce6023836128f9565b91506135d982613572565b604082019050919050565b600060208201905081810360008301526135fd816135c1565b9050919050565b600081519050919050565b600082825260208201905092915050565b600061362b82613604565b613635818561360f565b935061364581856020860161290a565b61364e8161293d565b840191505092915050565b600060808201905061366e6000830187612858565b61367b6020830186612858565b61368860408301856129a9565b818103606083015261369a8184613620565b905095945050505050565b6000815190506136b481612734565b92915050565b6000602082840312156136d0576136cf6126fe565b5b60006136de848285016136a5565b91505092915050565b7f4552524f523a202746524f4d272041444452455353204953204e4f54204f574e60008201527f4552204f462054484520544f4b454e0000000000000000000000000000000000602082015250565b6000613743602f836128f9565b915061374e826136e7565b604082019050919050565b6000602082019050818103600083015261377281613736565b9050919050565b7f4552524f523a2027544f272041444452455353204953204e4f542056414c4944600082015250565b60006137af6020836128f9565b91506137ba82613779565b602082019050919050565b600060208201905081810360008301526137de816137a2565b9050919050565b7f4e487b7100000000000000000000000000000000000000000000000000000000600052601160045260246000fd5b600061381f826127c3565b915061382a836127c3565b92508282101561383d5761383c6137e5565b5b828203905092915050565b7f4e487b7100000000000000000000000000000000000000000000000000000000600052603160045260246000fd5b7f4552524f523a20544f4b454e20454e544552454420414c52454144592045584960008201527f5354530000000000000000000000000000000000000000000000000000000000602082015250565b60006138d36023836128f9565b91506138de82613877565b604082019050919050565b60006020820190508181036000830152613902816138c6565b9050919050565b6000613914826127c3565b91507fffffffffffffffffffffffffffffffffffffffffffffffffffffffffffffffff821415613947576139466137e5565b5b600182019050919050565b7f4e487b7100000000000000000000000000000000000000000000000000000000600052601260045260246000fd5b600061398c826127c3565b9150613997836127c3565b9250826139a7576139a6613952565b5b828204905092915050565b60006139bd826127c3565b91506139c8836127c3565b9250826139d8576139d7613952565b5b828206905092915050565b60006139ee826127c3565b91506139f9836127c3565b9250827fffffffffffffffffffffffffffffffffffffffffffffffffffffffffffffffff03821115613a2e57613a2d6137e5565b5b828201905092915050565b7f436f756e7465723a2064656372656d656e74206f766572666c6f770000000000600082015250565b6000613a6f601b836128f9565b9150613a7a82613a39565b602082019050919050565b60006020820190508181036000830152613a9e81613a62565b905091905056fea2646970667358221220bccfde88a563672f27a7b3a8b4dc189313da2d5e584fca2cd70387410d55a39664736f6c634300080b003368747470733a2f2f73332d75732d776573742d322e616d617a6f6e6177732e636f6d2f756461636974792d626c6f636b636861696e2f63617073746f6e652f",
  "immutableReferences": {},
  "source": "// SPDX-License-Identifier: UNLICENSED\npragma solidity ^0.8.0;\nimport \"./ERC721Mintable.sol\";\nimport \"./verifier.sol\";\n\ninterface IZokratesVerifier {\n    struct Proof {\n        Pairing.G1Point a;\n        Pairing.G2Point b;\n        Pairing.G1Point c;\n    }\n\n    function verifyTx(Proof memory proof, uint256[2] memory input) external view returns (bool r);\n\n}\n\ncontract SolnSquareVerifier is REERC721Token {\n    struct Solution {\n        address addr;\n        uint256 index;\n    }\n    Solution[] solutions;\n    //  define a mapping to store unique solutions submitted\n    mapping(uint256 => Solution) uniqueSolutions;\n\n    event SolutionAdded(address addr, uint256 index);\n\n    IZokratesVerifier verifier;\n\n    constructor(address contractAddress) {\n        verifier = IZokratesVerifier(contractAddress);\n    }\n\n    function addSolution(address _addr, uint256 tokenId) public {\n        solutions.push(Solution(_addr, tokenId));\n        uniqueSolutions[tokenId] = Solution(_addr, tokenId);\n\n        emit SolutionAdded(_addr, tokenId);\n    }\n\n    struct Proof {\n        uint256[2] a;\n        uint256[2][2] b;\n        uint256[2] c;\n    }\n\n    function mintNFT(uint256 tokenId, IZokratesVerifier.Proof memory proof, uint256[2] memory input) public {\n        require(uniqueSolutions[tokenId].addr == address(0), \"ERROR: SOLUTION IS NOT UNIQUE\");\n        \n        require(verifier.verifyTx(proof, input), \"ERROR: VERIFICATION FAILED. CAN'T MINT TOKEN\");\n\n        addSolution(msg.sender, tokenId);\n        _mint(msg.sender, tokenId);\n\n    }\n}",
  "sourcePath": "/Users/fernandomaximof/Documents/udacity-projects/capstone/Blockchain-Capstone/eth-contracts/contracts/SolnSquareVerifier.sol",
  "compiler": {
    "name": "solc",
    "version": "0.8.11+commit.d7f03943.Emscripten.clang"
  },
  "schemaVersion": "3.4.3",
  "updatedAt": "2022-01-24T08:46:30.839Z",
  "networkType": "ethereum",
  "devdoc": {
    "kind": "dev",
    "methods": {},
    "version": 1
  },
  "userdoc": {
    "kind": "user",
    "methods": {},
    "version": 1
  }
}